:020000040800F2
:1000000000000320F5020008390300083903000846
:100010003903000839030008390300080000000014
:10002000000000000000000000000000693300082C
:100030003903000800000000353400088D34000842
:1000400039030008390300083903000839030008A0
:100050003903000839030008A9050008390300081E
:100060003903000839030008390300083903000880
:100070003903000839030008390300083903000870
:100080003903000839030008390300083903000860
:100090003903000839030008390300083903000850
:1000A0003903000839030008390300083903000840
:1000B0003903000839030008390300083903000830
:1000C0003903000839030008390300083903000820
:1000D0003903000839030008390300083903000810
:1000E0003903000839030008390300083903000800
:1000F00039030008390300083903000839030008F0
:1001000039030008390300083903000839030008DF
:1001100039030008390300083903000839030008CF
:1001200039030008390300083903000839030008BF
:1001300039030008390300083903000839030008AF
:10014000390300083903000839030008390300089F
:10015000390300083903000839030008390300088F
:10016000390300083903000839030008390300087F
:10017000390300083903000839030008390300086F
:10018000390300083903000839030008390300085F
:10019000390300083903000839030008390300084F
:0C01A00039030008390300083903000887
:1001AC0034640008000000202C0000202C000020EB
:1001BC00342E0120844641EA000313F003036DD171
:1001CC00403A41D351F8043B40F8043B51F8043B0E
:1001DC0040F8043B51F8043B40F8043B51F8043B15
:1001EC0040F8043B51F8043B40F8043B51F8043B05
:1001FC0040F8043B51F8043B40F8043B51F8043BF5
:10020C0040F8043B51F8043B40F8043B51F8043BE4
:10021C0040F8043B51F8043B40F8043B51F8043BD4
:10022C0040F8043B51F8043B40F8043B51F8043BC4
:10023C0040F8043B51F8043B40F8043B51F8043BB4
:10024C0040F8043B403ABDD2303211D351F8043B54
:10025C0040F8043B51F8043B40F8043B51F8043B94
:10026C0040F8043B51F8043B40F8043B103AEDD203
:10027C000C3205D351F8043B40F8043B043AF9D254
:10028C00043208D0D2071CBF11F8013B00F8013B27
:10029C0001D30B8803806046704700BF082A13D334
:1002AC008B078DD010F003038AD0C3F10403D21A4C
:1002BC00DB071CBF11F8013B00F8013B80D331F880
:1002CC00023B20F8023B7BE7043AD9D3013A11F800
:1002DC00013B00F8013BF9D20B7803704B7843706B
:1002EC008B78837060467047002103E00A4B5B58A3
:1002FC004350043109480A4B42189A42F6D3094A32
:10030C0002E0002342F8043B074B9A42F9D300F079
:10031C000FF800F059F97047346400080000002011
:10032C002C0000202C000020342E0120FEE70000C1
:10033C004FF46D42CEF200024FF46053D2F88810A5
:10034C00C4F2020341F47001C2F88810196800224B
:10035C0041F0010119609A60186843F2100120F015
:10036C008470C2F2004120F4803018605960196822
:10037C0082B021F480211960DA60009201921A682F
:10038C0042F480321A601A4603E0009BB3F5A04F8A
:10039C0009D0136803F400330193009B01330093DD
:1003AC00019B002BF1D04FF46053C4F202031B6885
:1003BC0013F4003318BF01230193019B012B08D0C8
:1003CC004FF46D43CEF200034FF000629A6002B01E
:1003DC0070474FF46053C4F202034FF4E042196CBF
:1003EC00C4F2000241F080511964116841F440419B
:1003FC0011609A689A609A6842F400429A6099680F
:10040C0044F6193241F4A051C0F2407299605A601E
:10041C001A6842F080721A6019460A684FF46053E9
:10042C009201C4F20203F8D54FF47052C4F20202E6
:10043C0040F2046111609A6822F003029A609A6893
:10044C0042F002029A609A6802F00C02082AFAD171
:10045C00B6E700BF4FF46053C4F202039A6802F08F
:10046C000C02042A3AD0082A16D04FF41051C0F2CC
:10047C00F4014FF46053C4F2020340F20002986896
:10048C00C2F20002C0F3031040F21003125CC2F27D
:10049C000003D1401960704758685A6810F4800FF7
:1004AC00586815BF4FF490534FF41053C0F27A03B1
:1004BC00C0F2F40302F03F02B3FBF2F14FF46053CD
:1004CC00C4F20203C0F388105B68C3F30143013329
:1004DC0001FB00F15B00B1FBF3F1CAE74FF4905163
:1004EC00C0F27A01C5E700BF08B54020012103F036
:1004FC0073FC01200146BDE8084003F06DBC00BF51
:10050C0030B54FF4C05085B000244FF4C0420123E5
:10051C0003256946C4F2020000928DF804308DF870
:10052C0006408DF807408DF8055003F0CBF92046B6
:10053C004FF480620223C4F2020002A98DF80C4031
:10054C008DF80E408DF80D5002928DF80F3003F09F
:10055C00B9F905B030BD00BF10B5002084B001461C
:10056C0003F0B2FF01240022102302A88DF80C2006
:10057C008DF80D3002948DF80E4004F069FE0F23B7
:10058C00062201A88DF807408DF804208DF805305F
:10059C008DF8063003F076F804B010BD08B50120D4
:1005AC0004F0A6FE00B908BD0022C4F202024FF40A
:1005BC00C0531269C4F2020352035A610120BDE810
:1005CC00084004F0AFBE00BF08B5FFF78DFFFFF782
:1005DC0097FFFEE72DE9F843074638200E46904674
:1005EC0002F0FEFF044600285DD040F25C03C2F22C
:1005FC0000031A686AB325460023012E28BF012682
:10060C00A386E662C4F8308045F8047B284600F0E7
:10061C002DFB04F1180000F029FB40F2A802C2F2F5
:10062C000002E36A116824618B4240F2800088BFAB
:10063C001360C6F1020603EB8303C2F2000000EB69
:10064C008300A6616462294600F014FB0120BDE81A
:10065C00F88340F28000C2F2000040F230091C60C6
:10066C00C2F2000900F0F6FA40F26005104800F002
:10067C00F1FAC2F20005484600F0ECFA284600F008
:10068C00E9FA40F24800C2F2000000F0E3FA40F24E
:10069C007C0240F2AC03C2F20002C2F20003C2F8C8
:1006AC0000901D60A7E74FF0FF30BDE8F88300BF56
:1006BC0094000020F8B540F2740540F25C04C2F2DC
:1006CC000005C2F200042E6823680644181D0F466C
:1006DC0000F0FAFA2A682168964235BF40F2AC0263
:1006EC0040F27C02C2F20002C2F200024E601068BC
:1006FC00043100F0CFFA37B1216838461831BDE823
:10070C00F84000F0C7BAF8BD2DE9F04F40F24806AA
:10071C00C2F2000685B0336840F2A807002B00F047
:10072C00E180C2F2000740F28008B946C2F200082C
:10073C0002F030FEF368DC6804F1180000F0C4FA33
:10074C00251D002002F05AFE284600F0BDFAE36A8F
:10075C003A6803EB8300934208EB8000294688BF7C
:10076C00C9F8003000F086FA3368002BE0D140F273
:10077C007802C2F20002039201F0B8FC039C40F232
:10078C007406236840F24402C2F20002C2F2000670
:10079C00C01A40F2AC04019240F27C0B40F2A80962
:1007AC001060C2F20004326802940346C2F2000BDD
:1007BC00C2F20009002B47D0581E019B0132326057
:1007CC001860002A5FD0DBF800100B6840F27C0543
:1007DC00C2F20005002B64D0CB68D3F80CA0DAF879
:1007EC0004108A4208D25CE0DB683268D3F80CA0B3
:1007FC00DAF80410914222D80AF1040402F0CAFD7E
:10080C00204600F061FADAF828200AF118000AB143
:10081C0000F05AFA002002F0F1FDDAF82C303A68B8
:10082C0003EB8300934208EB8000214688BFC9F894
:10083C00003000F01FFA2B681A68002AD4D1019CF2
:10084C0032682368002BB7D13968039C22608A0078
:10085C00541840F2800058F82440C2F200002CBB1F
:10086C0071B14A1E02EB820450F82440DCB9002A14
:10087C003FD08A1E02EB820350F823309BB93A60BA
:10088C0005B0BDE8F08F029CDBF8003021682360D6
:10089C000B68CBF8001040F27C05C2F20005002B6F
:1008AC009AD1034686E711463A6092000A4408EB57
:1008BC00820808F10802D8F804305B689342C8F843
:1008CC00043004BF5B68C8F80430DB6840F25C029B
:1008DC001846C2F20002016B13601B68984705B002
:1008EC00BDE8F08F40F28008C2F20007C2F20008A7
:1008FC003DE71A46C3E700BF38B5C368DC6804F1AE
:10090C001805284600F0E0F940F248002946C2F2EA
:10091C00000000F0AFF940F25C03C2F20003E06AA1
:10092C001B68DB6A984234BF0020012038BD00BF31
:10093C0010B51C2002F054FE044620B1002340F8F0
:10094C00043B00F087F9204610BD00BF2DE9F843A9
:10095C0011F07F4F0C46064617469846DDF820905E
:10096C0016D111B902F016FDFEE702F0CDF910B95F
:10097C00B9F1000F0FD101F0B1FB3568B8F1000FE0
:10098C000CD12C420ED087B125EA040434600CE063
:10099C0002F000FDFEE702F0FDFCFEE704EA0503B1
:1009AC009C42F0D0B9F1000F04D101F07DFC284637
:1009BC00BDE8F883002F14BF4FF0A0614FF08061A9
:1009CC0014BF4FF080730023B8F1000F08BF194615
:1009DC004A462143301D02F01FF801F065FC08B9AE
:1009EC0002F0CCFC02F008FA830148BF20F07F45EE
:1009FC00DDD402F0F3FC3568B8F1000F08D12C42BD
:100A0C0003D017B125EA0404346002F0FBFCCEE7F6
:100A1C0004EA05039C42F8D1F3E700BF11F07F4FC5
:100A2C0070B50C46064602D002F0B4FCFEE702F0AC
:100A3C00D5FC356825EA0404346002F0E3FC284652
:100A4C0070BD00BF11F07F4F70B50E46054602D049
:100A5C0002F0A0FCFEE702F09DFC2C6824EA0606DE
:100A6C002E6002F0CBFC204670BD00BFF8B511F033
:100A7C007F450E46044602D002F08CFCFEE701F0E6
:100A8C002DFB21682069314304F10C06864221605C
:100A9C000DD120E0194207D0D20141F0007148BFBE
:100AAC001D4302F08FF82168BE420DD0384690E805
:100ABC00840012F0806F22F07F43EBD001EA030E2A
:100ACC009E45E9D0BE42F1D1ED432940216001F0B1
:100ADC00EBFB2068F8BD4FF0FF35F6E712F07F4FC7
:100AEC00F8B5154604460E461F4619D112B902F048
:100AFC0051FCFEE702F008F9A8B9002F44D101F02F
:100B0C00EDFA2368314620461E43FFF7AFFF05EA96
:100B1C000601A94234D0266801F0C6FB3046F8BD68
:100B2C0002F038FCFEE701F0D9FA23683146204682
:100B3C001E43FFF79BFF05EA0601A94220D0002FB8
:100B4C00E9D03A46201D45F0A06101F065FF01F0A7
:100B5C00ABFB08B902F012FC02F04EF9830148BF5E
:100B6C0020F07F46DAD402F039FC266805EA060349
:100B7C00AB4204BF26EA0505256002F043FCCDE735
:100B8C0023680B402360C7E702F004FCFEE700BFBC
:100B9C0038B5044601F0A2FA63687BB1206904F110
:100BAC000C05A84203D110E02069A8420DD04FF0EB
:100BBC00007102F007F86368002BF5D1204602F0B3
:100BCC003FFDBDE8384001F06FBB02F0E3FBFEE7F0
:100BDC00F8B511F07F450E46044602D002F0DAFB60
:100BEC00FEE701F07BFA21682069314304F10C0621
:100BFC00864221600DD120E0194207D0D20141F08C
:100C0C00007148BF1D4301F0DDFF2168BE420DD0CD
:100C1C00384690E8840012F0806F22F07F43EBD0CE
:100C2C0001EA030C6345E9D0BE42F1D1ED43294002
:100C3C002160BDE8F84001F037BB4FF0FF3529408B
:100C4C002160BDE8F84001F02FBB00BF00B1806906
:100C5C00704700BF00F108034FF0FF3100228160A4
:100C6C0080E80C00C3600361704700BF0023036180
:100C7C00704700BF43689A6810B404688A609A6829
:100C8C004B60013451609960086104605DF8044B5D
:100C9C00704700BF30B40D686B1C18BF00F1080220
:100CAC0001D10EE01A4653681C68A542FAD20468BA
:100CBC004B60013499608A6051600861046030BCFB
:100CCC00704702695368F2E742688168036910B49F
:100CDC00916081685C684A601A68844208BF5960F8
:100CEC00013A002101615DF8044B1A60104670470F
:100CFC0030B40568034665B1026CC468406814449E
:100D0C008442DC6028BFDD60084630BCD968FFF740
:100D1C0051BA30BC704700BF38B5044602F05EFBD8
:100D2C00A36C002B14DD636A93B104F1240507E076
:100D3C00A36C013BA364A36C002B09DD636A3BB17C
:100D4C00284601F0F9FE0028F2D001F0C7FFEFE7CA
:100D5C004FF0FF33A36402F055FB02F03FFB636CD2
:100D6C00002B14DD236993B104F1100507E0636CCB
:100D7C00013B6364636C002B09DD23693BB128469E
:100D8C0001F0DAFE0028F2D001F0A8FFEFE74FF0F7
:100D9C00FF336364BDE8384002F034BB70B50446E1
:100DAC000D4688B302F01AFB206CE26B236802FB41
:100DBC0000F2101A1E18002198184FF0FF32A16390
:100DCC00E66062646060A360A2648DB923691BB99C
:100DDC0002F018FB012070BD04F1100001F0ACFE14
:100DEC000128F5D102F0CAFA02F00CFB012070BD0B
:100DFC0004F11000FFF72EFF04F12400FFF72AFF87
:100E0C0002F000FB012070BD02F0C4FAFEE700BF47
:100E1C00F8B505460E461746002831D0542002F08E
:100E2C00DFFB044660B306FB05F0013002F0D8FB93
:100E3C00206010B3E563266402F0D0FA206CE16BFD
:100E4C00236801FB00F1081A1D18002258184FF0F6
:100E5C00FF31A263A36061646060A16404F11000BF
:100E6C00E560FFF7F7FE04F12400FFF7F3FE02F054
:100E7C00C9FA84F850702046F8BD204602F0E0FB19
:100E8C0002F088FAFEE700BFF8B505460E460028CA
:100E9C0033D0884202D202F07DFAFEE7542002F0F1
:100EAC009FFB044678B3012002F09AFB206038B314
:100EBC000027E563276402F091FA216CE26B23684A
:100ECC00A76302FB01F2511A581899184FF0FF3220
:100EDC00A36062646160A264E06004F11000FFF73B
:100EEC00B9FE04F12400FFF7B5FE02F08BFA0223E1
:100EFC0084F85030A6632046F8BD02F04BFAFEE7AA
:100F0C00204602F09DFB02F045FAFEE72DE9F04F7A
:100F1C0085B00446894601921F46002800F0E58002
:100F2C00002900F02381022F57D001F0EDFE18B9F3
:100F3C00019B002B40F0178102F050FAA26BE36B7F
:100F4C004FF0000B9A42DA4604F1100504F1240626
:100F5C004FF0FF3871D3022F00F0DA80019800288F
:100F6C0000F0CF80BBF1000F00F0BB8002F04AFA1A
:100F7C0001F0B4F802F032FA636C013308BFC4F824
:100F8C0044A0A36C013308BFC4F848A002F03AFA9D
:100F9C0002A801A901F068FE002840F0A98002F027
:100FAC001DFAA26BE36B9A425AD002F02BFA02F0B4
:100FBC0015FAA36C002B06DC15E0A36C013BA364B3
:100FCC00A36C002B0FDD636A6BB1304601F0B4FDEE
:100FDC000028F2D001F082FEEFE7E36B012BA4D0E6
:100FEC0002F0D8F9FEE7C4F8488002F00BFA02F0E0
:100FFC00F5F9636C002B12DD236943B90FE0636CC8
:10100C00013B6364636C002B09DD22693AB128460D
:10101C0001F092FD0028F2D001F060FEEFE7C4F879
:10102C00448002F0EFF901F03FF902F0D7F9A26B1E
:10103C00E36B9A424FF0010B8DD2226C002A69D0DF
:10104C00002F78D14946A068FFF7B4F8A168236C4B
:10105C0062680B449342A36062D32368A3605FE091
:10106C0002F0D0F92846019901F08EFC02F0B6F995
:10107C00A36C002B06DC0FE0A36C013BA364A36CF8
:10108C00002B09DD636A3BB1304601F055FD0028A9
:10109C00F2D001F023FEEFE7C4F8488002F0B2F979
:1010AC0002F09CF9636C002B06DC0FE0636C013BD7
:1010BC006364636C002B09DD23693BB1284601F0A6
:1010CC003BFD0028F2D001F009FEEFE7C4F84480A4
:1010DC0002F098F901F0E8F80028A6D102F04EF9D8
:1010EC00A3E702A801F0AEFD40E702F053F9FEE7DA
:1010FC002046FFF711FE01F0D7F8002005B0BDE83F
:10110C00F08F009002F07EF9009805B0BDE8F08FEA
:10111C00226C82B925681DB9606801F043FE6560D8
:10112C00A26B636A0132A2633BBB02F06BF9012034
:10113C0005B0BDE8F08F4946E068FFF73BF8236C3B
:10114C00E26821685B421A448A42E2603EBF6268F0
:10115C009B18E360022FE3D1A36B002BE0D0A36BB1
:10116C00013BA363DCE702F015F9FEE7036C002BEF
:10117C003FF4D9AE02F00EF9FEE704F1240001F0C1
:10118C00DBFC0128D1D102F0F9F8CEE770B50646A8
:10119C00542002F025FA0446E8B100254FF0FF3345
:1011AC0001228563C263436480F8506083644560A8
:1011BC0005608560C56005641030FFF74BFD04F1D8
:1011CC002400FFF747FD204629462A462B46FFF709
:1011DC009DFE204670BD02F0DDF8FEE738B50446F2
:1011EC0030B1456801F08AFD854204D0002038BD3D
:1011FC0002F0D0F8FEE7E1680139E16009B10120A5
:10120C0038BD20460A460B46FFF780FE012038BD4C
:10121C002DE9F04104460E4690461D4600282FD07D
:10122C0000296FD0022D10D002F0B4F902F0B2F800
:10123C00A26BE36B9342074698BF00240BD8384649
:10124C0002F0DCF82046BDE8F081E36B012B33D0D3
:10125C0002F0A0F8FEE7226CAAB92568002D4CD04C
:10126C00A36B0133A363A36C01331BD0A36C0133B9
:10127C00A3643846012402F0C1F82046BDE8F08191
:10128C0002F088F8FEE705BB3146A068FEF792FF36
:10129C00A168236C62680B449342A360E0D323687B
:1012AC00A360DDE7636A002B32D13846012402F0DB
:1012BC00A5F82046BDE8F08102F06CF902F06AF85E
:1012CC00A26B226C0746002AC7D03146E068FEF7B5
:1012DC0071FF236CE26821685B421A448A42E26027
:1012EC003EBF62689B18E360022DB9D1A36B002B43
:1012FC00B6D0A36B013BA363B2E7606801F052FD6B
:10130C006560ADE7036C002B8CD002F043F8FEE770
:10131C0004F1240001F010FC0028C6D00124B8F11F
:10132C00000F8CD03846C8F8004002F067F8204611
:10133C00BDE8F0812DE9F04F85B004468846019256
:10134C009A46002800F0DC80002900F00B8101F0A7
:10135C00DBFC18B9019B002B40F0018102F03EF838
:10136C00A36B4FF0000BD94604F124054FF0FF3767
:10137C0004F11006002B6FD10198002800F0D480E6
:10138C00BBF1000F00F0B88002F03CF800F0A6FEB4
:10139C0002F024F8636C013308BFC4F84490A36CCA
:1013AC00013308BFC4F8489002F02CF802A801A938
:1013BC0001F05AFC002840F0AE8002F00FF8A36B4D
:1013CC00002B62D102F01EF82368002B00F09B80EA
:1013DC002846019901F0D8FA02F000F8A36C002B12
:1013EC0006DC0FE0A36C013BA364A36C002B09DDAE
:1013FC00636A3BB1284601F09FFB0028F2D001F054
:10140C006DFCEFE7A76401F0FDFF01F0E7FF636CF3
:10141C00002B12DD236943B90FE0636C013B63645D
:10142C00636C002B09DD22693AB1304601F084FB74
:10143C000028F2D001F052FCEFE7676401F0E2FF04
:10144C0000F032FF08B901F099FF01F0C7FFA36B60
:10145C004FF0010B002B8FD041462046E568FFF77B
:10146C0047FCBAF1000F66D1A26B2368013AA26364
:10147C0013B901F043FC60602369002B68D101F0C3
:10148C00C1FF012005B0BDE8F08F01F0BBFF01F0FA
:10149C00A5FFA36C002B06DC0FE0A36C013BA3643F
:1014AC00A36C002B09DD636A3BB1284601F044FBB9
:1014BC000028F2D001F012FCEFE7A76401F0A2FFC4
:1014CC0001F08CFF636C002B06DC0FE0636C013BBE
:1014DC006364636C002B09DD23693BB1304601F07A
:1014EC002BFB0028F2D001F0F9FBEFE7676401F069
:1014FC0089FF00F0D9FEA8E702A801F0A3FB43E79F
:10150C0001F048FFFEE701F069FF606801F00EFC96
:10151C0001F078FF5CE72046FFF7FEFB00F0C4FE0D
:10152C00002005B0BDE8F08F009001F06BFF009833
:10153C0005B0BDE8F08F636AE560002B9FD004F125
:10154C00240001F0F9FA002899D001F017FF96E772
:10155C0004F1100001F0F0FA012890D1F5E701F048
:10156C0019FFFEE7036C002B3FF4F1AE01F012FF04
:10157C00FEE700BF70B504460D4680B1466801F029
:10158C00BDFB86420ED000210B462A462046FFF7B3
:10159C00D1FE012802BFE3680133E36070BD01F0A6
:1015AC00F9FEFEE7E3680133E360012070BD00BF84
:1015BC00F8B504460E46154668B111B301F0EAFFC2
:1015CC0001F0E8FEA36B074643B91C46384601F010
:1015DC0015FF2046F8BD01F0DDFEFEE73146204642
:1015EC00FFF786FBA36B013BA363636C01330ED047
:1015FC00636C013363643846012401F0FFFE20461E
:10160C00F8BD036C002BD9D001F0C4FEFEE72369B2
:10161C00002BF0D004F1100001F08EFA0028EAD073
:10162C00002DE8D0012438462C6001F0E7FE20465E
:10163C00F8BD00BF2DE9F04104460E4668B1E1B19A
:10164C0001F0A8FF01F0A6FEA56B804645B9404607
:10165C0001F0D4FE2846BDE8F08101F09BFEFEE7C8
:10166C00E76831462046FFF743FB01254046E7601B
:10167C0001F0C4FE2846BDE8F081036C002BDFD0DE
:10168C0001F088FEFEE700BF10B5044630B101F052
:10169C00A5FEA46B01F0B6FE204610BD01F07AFE4B
:1016AC00FEE700BF10B5044640B101F097FEA36BF6
:1016BC00E46BE41A01F0A6FE204610BD01F06AFEB0
:1016CC00FEE700BF08B508B1806B08BD01F062FEF3
:1016DC00FEE700BF10B5044680B340F2B003C2F27F
:1016EC0000035A6890422CD0DA6890422ED05A6986
:1016FC00904230D0DA6990421BD05A6A904231D075
:10170C00DA6A90422CD05A6B90420DD0DA6B904230
:10171C0008BF072209D0206808B101F091FF2046CC
:10172C00BDE8104001F08CBF0622002143F83210B6
:10173C00F1E70322002143F83210ECE701F02AFE16
:10174C00FEE70022002143F83210E4E701220021D9
:10175C0043F83210DFE70222002143F83210DAE7B7
:10176C000522E2E70422E0E7C06C7047C1647047D1
:10177C0090F85000704700BF08B528B1806BD0F1CD
:10178C00010038BF002008BD01F004FEFEE700BFD9
:10179C0008B528B1826BC06B131A5842584108BD6A
:1017AC0001F0F8FDFEE700BF40F2B003C2F2000307
:1017BC0010B41A688AB19A68BAB11A69BAB19A693E
:1017CC00BAB11A6ABAB19A6ABAB11A6B22B19A6BE7
:1017DC00AAB15DF8044B7047062203EBC20443F830
:1017EC00321060605DF8044B70470122F5E702226D
:1017FC00F3E70322F1E70422EFE70522EDE70722E6
:10180C00EBE700BF40F2B003C2F200035A68824219
:10181C001CD0DA6882421BD05A6982421AD0DA692B
:10182C00824219D05A6A824218D0DA6A824217D0A0
:10183C005A6B824205D0DA6B824208BF072201D074
:10184C0070470622002143F8321070470022F9E756
:10185C000122F7E70222F5E70322F3E70422F1E77E
:10186C000522EFE738B504460D4601F0B7FD636C71
:10187C00013304BF00236364A36C013304BF002352
:10188C00A36401F0BFFDA36B23B9294604F1240026
:10189C0001F018F901F0A2FDA36C002B14DD636AB2
:1018AC0093B104F1240507E0A36C013BA364A36C82
:1018BC00002B09DD636A3BB1284601F03DF9002895
:1018CC00F2D001F00BFAEFE74FF0FF33A36401F015
:1018DC0099FD01F083FD636C002B14DD236993B13A
:1018EC0004F1100507E0636C013B6364636C002B2F
:1018FC0009DD23693BB1284601F01EF90028F2D01E
:10190C0001F0ECF9EFE74FF0FF336364BDE83840CA
:10191C0001F078BD38B540F21015C2F20005002474
:10192C0028191434FFF796F9642CF9D140F2A41558
:10193C00C2F2000540F2B8142846C2F20004FFF7C8
:10194C0089F92046FFF786F940F28010C2F20000B8
:10195C00FFF780F940F2FC00C2F20000FFF77AF9C1
:10196C0040F2D010C2F20000FFF774F940F2F0021E
:10197C0040F29C13C2F20002C2F2000315601C601C
:10198C0038BD00BF2DE9F84F0AAF06460D4690460C
:10199C009A4697E8800A002800F0AE80042F02D9FE
:1019AC0001F0F8FCFEE74C2001F01AFE044600287A
:1019BC0000F0C180BBF1000F00F0B180C0F830B076
:1019CC0058464FEA880B5A46A52104F0DBFC2A78CE
:1019DC00236B84F8342008F1804808F1FF382A780A
:1019EC0003EB880323F0070B2AB36B7884F83530AC
:1019FC006B7803B3AB7884F83630AB78DBB1EB782B
:101A0C0084F83730EB78B3B12B7984F838302B79F4
:101A1C008BB16B7984F839306B7963B1AB7984F81D
:101A2C003A30AB793BB1EB7984F83B30EB7913B1BD
:101A3C002B7A84F83C30002304F1040884F83D3000
:101A4C004046E762A764FFF711F904F11800FFF7AD
:101A5C000DF9C7F1050324616462584631465246BC
:101A6C00A36101F065FC2060B9F1000F01D0C9F849
:101A7C00004001F0B3FC40F27813C2F2000340F2D4
:101A8C007C161A68C2F2000601321A603268002A0B
:101A9C003AD040F2F405C2F200052B6823B9336842
:101AAC00DB6A9F4228BF346040F2A010C2F20000F3
:101ABC0040F2E412C2F200020168E36AD2F800E0DC
:101ACC0001317345016040F2101088BF1360C2F2FF
:101ADC00000003EB830300EB830021644146FFF716
:101AEC00C9F801F08FFC2B681BB13368DB6A9F428D
:101AFC0005D80120BDE8F88F01F04CFCFEE701F0A1
:101B0C003DFC0120BDE8F88F34601B68012B40F2CE
:101B1C00F40501D1FFF7FEFEC2F20005C4E74FEA5F
:101B2C00880B584601F05CFD206300287FF44BAF16
:101B3C00204601F085FD4FF0FF30BDE8F88F00BF67
:101B4C0038B5044601F04AFC002C53D0251D28461C
:101B5C00FFF7BAF8A36A1BB104F11800FFF7B4F849
:101B6C0040F2FC002946C2F20000FFF783F840F275
:101B7C00F80240F2A013C2F20003C2F2000219688C
:101B8C001068013101301960106001F03BFC40F22B
:101B9C00F403C2F200031B68F3B140F27C13C2F2EF
:101BAC0000031B689C4218D040F2F003C2F2000301
:101BBC001A6812683AB940F21403C2F200034FF0EB
:101BCC00FF321A6038BD1B68DB68DA6840F2140318
:101BDC005268C2F200031A6038BD40F27413C2F2AC
:101BEC0000031B6813B101F0D5FBFEE7BDE83840DC
:101BFC0001F0C4BB40F27C13C2F200031C68A5E7E1
:101C0C0010B5044601F0EAFB24B1E46A01F0FAFBDA
:101C1C00204610BD40F27C13C2F200031C68E46A3B
:101C2C0001F0F0FB204610BD0429F8B50D46044622
:101C3C0036D801F0D3FB002C35D0A26C954226D0BF
:101C4C0040F27C13C2F2000325D919688C4208BFFC
:101C5C00002605D01B68DE6AB54234BF002601267B
:101C6C00E36AA5649A42A26908BFE562002AA4BF90
:101C7C00C5F10505A56140F2101503EB8303C2F213
:101C8C000005626905EB83039A4218D08EB9BDE852
:101C9C00F84001F0B7BB1E68A31B5E425E41DFE754
:101CAC0001F078FBFEE740F27C13C2F200031C68E3
:101CBC00C3E701F063FBBDE8F84001F0A3BB271DAF
:101CCC003846FFF701F840F2E412C2F20002E36A70
:101CDC00116803EB83008B4205EB8000394688BF0B
:101CEC001360FEF7C7FFD1E7F8B5044640F27C1548
:101CFC0001F074FBC2F20005002C49D0271D3846B8
:101D0C00FEF7E2FFA36A1BB104F11800FEF7DCFF3B
:101D1C0040F2D016C2F2000639463046FEF7AAFF52
:101D2C0001F070FB2A6840F27C139442C2F200036B
:101D3C001FD040F2F403C2F200031B6803B9F8BDD4
:101D4C0040F2F003C2F200031A6812683AB940F28A
:101D5C001403C2F200034FF0FF321A60F8BD1B6887
:101D6C00DB68DA6840F214035268C2F200031A60AE
:101D7C00F8BD40F2F402C2F20002116851B140F217
:101D8C007413C2F200031B6873B101F003FBFEE78E
:101D9C002C68B3E740F27812C2F200023068126885
:101DAC00904205D11960F8BDBDE8F84001F0E6BAE3
:101DBC0040F27413C2F200031968002933D140F2C7
:101DCC00E812C2F2000240F2E413C2F20003116006
:101DDC00196840F2101201EB8101C2F2000252F8B4
:101DEC00211079B91968184611B923E0016809B3B3
:101DFC00196801391960196801EB810152F8211039
:101E0C000029F3D01B6803EB830302EB830202F17E
:101E1C00080153685B688B42536001D15B68536067
:101E2C00DB682B60F8BD40F2E813C2F2000301221C
:101E3C001A60F8BD01F0AEFAFEE700BF70B50446BB
:101E4C00A0B140F27C15C2F200052B6898420CD070
:101E5C0001F0C4FA40F2D0136269C2F200039A4254
:101E6C0007D0BDE8704001F0CDBA70BD01F092FA18
:101E7C00FEE740F28013A26AC2F200039A42F0D04D
:101E8C00002AEED1261D3046FEF71EFF40F2E4126A
:101E9C00C2F20002E36A116840F210108B4288BF54
:101EAC001360C2F2000003EB830300EB83003146A6
:101EBC00FEF7E0FE2B68E26ADB6A9A42D1D301F0AE
:101ECC005DFACEE7F8B5044688B101F063FB01F08A
:101EDC0061FA40F2D0136269C2F200039A420646DC
:101EEC0008D03046002501F089FA2846F8BD01F0EB
:101EFC0051FAFEE740F28010A56AC2F2000085425A
:101F0C00EFD0002DEDD140F27412C2F20002126833
:101F1C003ABB40F27C13C2F20003E26A1B68DD6A32
:101F2C00271DAA42384634BF00250125FEF7CCFEFA
:101F3C0040F2E412C2F20002E36A116840F210109F
:101F4C008B4288BF1360C2F2000003EB830300EBEB
:101F5C0083003946FEF78EFE304601F04FFA2846D4
:101F6C00F8BD04F11801FEF785FE304601F046FA83
:101F7C002846F8BDF8B54C2001F032FB0446002889
:101F8C0000F089804FF4027001F02AFB20630028D6
:101F9C0000F08580A5214FF4027204F0F3F9236B55
:101FAC0000254C21452249264420271D03F50173A9
:101FBC0084F8361084F8372084F8346084F83500BF
:101FCC0084F83850384684F83D50E562A56423F017
:101FDC000706FEF74BFE04F11800FEF747FE05233B
:101FEC0042F2ED412A46A3613046C0F6000124615D
:101FFC00646201F09DF9206001F0F0F940F2781371
:10200C00C2F2000340F27C161A68C2F200060132DA
:10201C001A603268002A47D040F2F405C2F200057B
:10202C002B681BB93368DB6A03B9346040F2A0112A
:10203C00C2F2000140F2E412C2F200020868E36A44
:10204C00D2F800E0013073450860206440F21010B3
:10205C0088BF1360C2F2000003EB830300EB830024
:10206C003946FEF707FE01F0CDF92B6803B1336852
:10207C0000F0D0FE012804460CD101F08BF940F29F
:10208C009813C2F2000300222C601A60BDE8F840DD
:10209C0001F022BA04B1F8BD01F07CF9FEE720464C
:1020AC00BDE8F84001F0CCBA34601B68012B40F25B
:1020BC00F40501D1FFF72EFCC2F20005B6E700BF14
:1020CC0008B501F067F940F2F403C2F200030022F4
:1020DC001A60BDE8084001F073B900BF40F27413F8
:1020EC00C2F200031A6801321A60704710B501F091
:1020FC0075F940F29813C2F200031C6801F082F9E2
:10210C00204610BD10B501F045FA01F043F940F23C
:10211C009813C2F200031C6801F070F9204610BD40
:10212C0040F27813C2F20003186870472DE9F04FA3
:10213C0040F27413C2F2000383B01B68002B65D10C
:10214C0040F29813C2F2000340F214041A680132F0
:10215C001A60D3F80090C2F20004B9F1000F69D0F4
:10216C002368994570D340F2F00840F2101640F203
:10217C007C1B40F2E417C2F20008C2F20006C2F265
:10218C00000BC2F2000700252DE040F2F003C2F272
:10219C0000031A68D268D2F80CA0DAF804100AF11D
:1021AC00040389450193184674D3FEF78DFDDAF8C4
:1021BC0028100AF1180009B1FEF786FDDAF82C3068
:1021CC003A68019903EB8300934206EB800088BFC9
:1021DC003B60FEF74FFDDBF80000DAF82C10C26A0A
:1021EC00914228BF0125D8F800201268002ACCD1D2
:1021FC004FF0FF322260DBF80030DB6A03EB830325
:10220C0056F82330012B88BF012507E040F2CC1390
:10221C00C2F2000300251A6801321A6040F2E8137A
:10222C00C2F200031B68002B18BF0125284603B01F
:10223C00BDE8F08F40F2F003C2F200031A68126896
:10224C0062B101F0A7F8FEE740F2101640F27C1BD9
:10225C00C2F20006C2F2000B0025CCE740F29C1142
:10226C00C2F2000118680C6840F29412C2F200022B
:10227C001C6008601168013111601A6812685AB14B
:10228C001B68DB68DB6840F214045B68C2F2000474
:10229C00236065E72160AEE740F21404C2F200044B
:1022AC004FF0FF3323605BE72DE9F84F40F27414D5
:1022BC00C2F20004236813B901F06CF8FEE701F0D8
:1022CC008DF82368013B23602368002B48D140F232
:1022DC007813C2F200031B68002B41D040F2801629
:1022EC00C2F2000640F2E81540F2E41440F2101974
:1022FC0040F27C18B246C2F20005C2F20004C2F2EF
:10230C000009C2F200081FE0DAF80C30DF6807F1B0
:10231C00040B07F11800FEF7D7FC5846FEF7D4FC67
:10232C00FB6A226803EB83009342594609EB800059
:10233C0088BF2360FEF79EFCD8F80030F96ADB6A90
:10234C00994224BF01232B603368002BDCD140F26F
:10235C00CC14C2F20004236843B92C68012C14D0AD
:10236C00002401F04FF82046BDE8F88F2368002BBD
:10237C00F3D00126FFF7DAFE00B12E602368013B93
:10238C0023602368002BF5D1E7E700F0F7FF01F09D
:10239C0039F82046BDE8F88F70B500284DD00029DB
:1023AC0048D040F27413C2F200031A68002A3ED1DE
:1023BC001C68026840F298160134C2F200061C60D8
:1023CC003368934202EB010426D3A24201D8A34204
:1023DC0024D240F27C15C2F2000504602868043057
:1023EC00FEF772FC2A68336854609C4228D340F292
:1023FC00F003C2F20003186829680431FEF74AFCA6
:10240C0040F21403C2F200031A68944238BF1C60F5
:10241C00FFF74AFF38B170BDA242D8D80460FFF76D
:10242C0043FF0028F7D1BDE8704000F0A7BF00F0D3
:10243C00B1FFFEE700F0AEFFFEE700F0ABFFFEE7FA
:10244C0040F29C13C2F20003186829680431FEF7AD
:10245C0021FCDDE770B5024618B9BDE8704000F00C
:10246C008DBF40F27413C2F20003196859BB19688E
:10247C0040F2981640F27C140131C2F20006C2F20E
:10248C00000419603568206804301544FEF71CFC04
:10249C002268336855609D4218D340F2F003C2F2B3
:1024AC000003186821680431FEF7F4FB40F21403B2
:1024BC00C2F200031A68954238BF1D60FFF7F4FEA4
:1024CC000028CAD070BD00F065FFFEE740F29C13F7
:1024DC00C2F20003186821680431FEF7DBFBEDE75C
:1024EC002DE9804840F2FC0683B040F2F80540F23A
:1024FC007812C2F20006C2F2000540F2741440F2E7
:10250C001019C2F20002B246A846C2F200040192AF
:10251C00C2F2000906E02368376801332360FFF735
:10252C00C3FE4FB92B68002BF5D1D9F80030012B25
:10253C00F8D900F023FFF5E700F050FFDAF80C3083
:10254C00D3F80CB00BF10400FEF7BEFB019A136834
:10255C00013B1360D8F80030013BC8F8003000F0A4
:10256C0051FFDBF8300001F06BF8584601F068F8C9
:10257C00D8E700BF40F27413C2F200032DE9F04F0C
:10258C001D6840F27814C2F2000401351D60236806
:10259C0085B08B428DE8050088BF00263FD840F2FD
:1025AC001012C2F200024FF00009A2F10C0A02F163
:1025BC005805C8464FF0010C55F8080C002834D1CA
:1025CC00143D55458144F7D140F2F003C2F20003AB
:1025DC001F683E68002E40F0C28040F29C13C2F28D
:1025EC000003B1441F683E68002E40F0F68040F2B4
:1025FC00FC07C2F20007B1443E68002E40F0338164
:10260C0040F2D017C2F2000706EB090A3E68002E12
:10261C0058D1019B564413B11A4600231360FFF79F
:10262C0043FE304605B0BDE8F08F55F8043C5968C0
:10263C0040F21013C2F20003A94203F1580245F80C
:10264C00041CC3EB050708BF69681744009ACE68E1
:10265C0008BF45F8041C02EB491300204968A94245
:10266C0045F8041C08BF57F8541CCA6808BF45F845
:10267C00041C02F1340483E81400146C83F80CC0BD
:10268C009C60D46A1C61946CC3F818805C61146BF8
:10269C0094F800E0BEF1A50F12D1A64600241EF856
:1026AC0001BFBBF1A50F04F10104F8D0C4F38F04F2
:1026BC0096429C8300F1010003F12003CED17FE709
:1026CC000024F5E77B68FA685D68029207F1080E52
:1026DC0075457D6008BFFD68009BD5F80C9040F2F5
:1026EC00D0120026C2F2000203EB4A10B04603924D
:1026FC004FF0030C4FF0020B6D68754508BF029B41
:10270C007D6004BF1D46039AEC6808BF536004F15A
:10271C00340304604360236C80F80CC08360E36A6C
:10272C000361A36A0BB180F80CB0A36CC0F81880DD
:10273C004361226B1378A52B4FF0000307D112F8DD
:10274C00011FA52903F10103F9D0C3F38F03A145A0
:10275C00838306F1010600F12000CDD159E77B6897
:10276C005D68009B7D6007F1080E754508BFDEF8BB
:10277C0004500026D5F80CA0B04603EB49104FF0DE
:10278C00020C6D68AE457D6008BFFD68EA6808BF45
:10279C007D6002F1340380E80C00136C80F80CC0EF
:1027AC008360D36A0361936CC0F818804361116B2A
:1027BC000B78A52B4FF0000307D111F8014FA52C76
:1027CC0003F10103F9D0C3F38F039245838306F120
:1027DC00010600F12000D4D1FFE67B685D68009B08
:1027EC007D6007F1080E754508BFDEF80450002621
:1027FC00D5F80CA0B04603EB49104FF0020C6D68F5
:10280C00AE457D6008BFFD68EA6808BF7D6002F1D7
:10281C00340380E80C00136C80F80CC08360D36A1E
:10282C000361936CC0F818804361116B0B78A52B76
:10283C004FF0000307D111F8014FA52C03F1010350
:10284C00F9D0C3F38F039245838306F1010600F19F
:10285C002000D4D140F2FC07C2F20007B1443E681C
:10286C00002E3FF4CDAE7B68FA685D68009B7D60FE
:10287C0007F1080E754508BFFD680292002640F26C
:10288C00FC0BD5F80CA0B046C2F2000B03EB4910C0
:10289C004FF0040C6D68754508BF029A7D6004BF4B
:1028AC001546CBF80420EB6803F134020360426058
:1028BC001A6C80F80CC08260DA6A02619A6CC0F8FB
:1028CC0018804261196B0A78A52A4FF0000207D1D3
:1028DC0011F8014FA52C02F10102F9D0C2F38F02BD
:1028EC009A45828306F1010600F12000D2D187E6D9
:1028FC0008B540F27413C2F200031968002935D1EF
:10290C0040F2E812C2F2000240F2E413C2F20003F9
:10291C001160196840F2101201EB8101C2F2000241
:10292C0052F8211079B91968184611B925E00168D7
:10293C0019B3196801391960196801EB810152F852
:10294C0021100029F3D01B6803EB830302EB8302F5
:10295C0002F1080153685B688B42536010D040F25F
:10296C007C12DB68C2F20002136008BD40F2E8136F
:10297C00C2F2000301221A6008BD00F00BFDFEE755
:10298C005B685360EBE700BF38B50D4600283FD0BD
:10299C0040F27C14C2F2000421681831FEF77AF977
:1029AC0020680430FEF790F96A1C27D040F2981387
:1029BC00C2F20003196822681B680D449D425560E1
:1029CC0011D340F2F003C2F20003186821680431FD
:1029DC00FEF760F940F21403C2F200031A68954244
:1029EC0038BF1D6038BD40F29C13C2F2000318685A
:1029FC002168BDE838400431FEF74CB9216840F23B
:102A0C00D0100431C2F20000BDE83840FEF732B9F4
:102A1C0000F0C0FCFEE700BF38B51546002838D0E2
:102A2C0040F27413C2F200031B6813B900F0B2FC3D
:102A3C00FEE740F27C14C2F2000441F0004122682F
:102A4C002368916103F11801FEF714F92068043032
:102A5C00FEF73AF9691C2AD040F29813C2F200032F
:102A6C00196822681B680D449D42556014D340F2CE
:102A7C00F003C2F20003186821680431FEF70AF96A
:102A8C0040F21403C2F200031A68954238BF1D606D
:102A9C0038BD00F07FFCFEE740F29C13C2F200034D
:102AAC0018682168BDE838400431FEF7F3B8216896
:102ABC0040F2D0100431C2F20000BDE83840FEF7FD
:102ACC00D9B800BF38B50D4640B340F27C14C2F201
:102ADC00000421681831FEF7CDF820680430FEF7A9
:102AEC00F3F840F29813C2F20003196822681B68CD
:102AFC000D449D42556014D340F2F003C2F2000322
:102B0C00186821680431FEF7C5F840F21403C2F2CC
:102B1C0000031A68954238BF1D6038BD00F03AFCBE
:102B2C00FEE740F29C13C2F2000318682168BDE86E
:102B3C0038400431FEF7AEB838B5C368DC68002CF9
:102B4C003CD004F118052846FEF7BEF840F2741389
:102B5C00C2F200031B684BBB251D2846FEF7B4F8D8
:102B6C0040F2E412C2F20002E36A116840F2101063
:102B7C008B4288BF1360C2F2000003EB830329462B
:102B8C0000EB8300FEF776F840F27C13C2F20003F0
:102B9C00E26A1B68DB6A9A4281BF40F2E813C2F218
:102BAC0000030120186098BF002038BD40F280104F
:102BBC002946C2F20000FEF75DF8E5E700F0EAFBFB
:102BCC00FEE700BF38B540F27413C2F200031A6876
:102BDC00002A30D0C46841F00042026074B3251D55
:102BEC00FEF772F82846FEF76FF840F2E412C2F2D4
:102BFC000002E36A116840F210108B4288BF136028
:102C0C00C2F2000003EB830300EB83002946FEF7BE
:102C1C0031F840F27C13C2F20003E26A1B68DB6AF3
:102C2C009A4281BF40F2E813C2F2000301201860FF
:102C3C0098BF002038BD00F0ADFBFEE700F0AAFB0A
:102C4C00FEE700BF08B560B140F2941240F2981351
:102C5C00C2F20002C2F2000312681B6880E80C008A
:102C6C0008BD00F097FBFEE7F8B504460D460028BA
:102C7C0031D069B300F0B2FB40F298132E68C2F267
:102C8C000003771C18681ED040F29412C2F20002A6
:102C9C0021681768B942616801D088420ED2471A80
:102CAC00BE420BD9301A12681B68014429600025FA
:102CBC0084E80C0000F0A6FB2846F8BD012500F0C6
:102CCC00A1FB2846F8BD002500F09CFB2846F8BD6A
:102CDC0000F060FBFEE700F05DFBFEE740F2E8135E
:102CEC00C2F2000301221A60704700BF00B1406CB1
:102CFC00704700BF00B14164704700BF40F27C13C5
:102D0C00C2F200031868704740F2F403C2F20003E9
:102D1C001B684BB140F27413C2F200031868002810
:102D2C000CBF02200020704701207047F8B5044604
:102D3C00F8B140F27C15C2F20005C36A2A68D26A67
:102D4C00934216D28269002AA4BF2A68D26A40F242
:102D5C001016A4BFC2F10502826103EB8303C2F219
:102D6C000006426906EB83039A4203D02B68DB6AA8
:102D7C00C362F8BD071D3846FDF7A6FF40F2E4120A
:102D8C002B68C2F20002DB6A1168E3628B4203EB30
:102D9C00830088BF136006EB80003946BDE8F8401D
:102DAC00FDF768BF38B5044620B3C26A836C9A42FB
:102DBC0020D0051D2846FDF787FFA269A36C002AC9
:102DCC00A4BFC3F10502A26140F2E412C2F20002F8
:102DDC0040F210101168E3628B4288BF1360C2F29C
:102DEC00000003EB8303294600EB8300BDE8384069
:102DFC00FDF740BF38BD00BF40F27C13C2F20003A8
:102E0C0019681A681B688869DB6AC3F1050393614A
:102E1C00704700BF2DE9F04140F21C24C2F20004BF
:102E2C0084B000F0DBFAD4F80080B8F1000F1AD0AF
:102E3C0000F0E8FA2368002B3FD00023022242F670
:102E4C00D57046F22C418DE80C0002930393C0F62A
:102E5C000000C0F600014FF48272FEF793FD60B3E0
:102E6C0004B0BDE8F08140F2F016C2F2000640F268
:102E7C0004253046C2F20005FDF7ECFE2846FDF7AE
:102E8C00E9FE40F2EC1740F22023C2F20003C2F23A
:102E9C00000742460A200C213E601D60FDF7B8FF7A
:102EAC00206068B146F22441C0F60001FEF77CFCBC
:102EBC0000F0A8FA2368002BBFD100F06BFAFEE7F4
:102ECC0000F068FAFEE700BF2DE9F04F884683B0AA
:102EDC00834692461F46F1B12C2000F081FB04463C
:102EEC00A8B140F21C25C2F2000500F077FA2A685E
:102EFC00A2B100F087FA0C9BC4F800B0C4F818809B
:102F0C00C4F81CA027626362201DFDF7AFFE2046AB
:102F1C0003B0BDE8F08F00F03DFAFEE740F2F01987
:102F2C00C2F2000940F204264846C2F200060192A1
:102F3C00FDF790FE3046FDF78DFE40F2EC1C40F2A2
:102F4C00202EC2F2000CC2F2000E019ACCF80090B6
:102F5C000A200C21CEF80060FDF75AFF286030B132
:102F6C0046F22441C0F60001FEF71EFCC1E700F05A
:102F7C0011FAFEE770B540F21C24C2F2000484B0D2
:102F8C002568EDB1052901910292039007DD1A46DF
:102F9C00284601A90023FEF73BF904B070BDFFF7EA
:102FAC00B3FE022813BF00222068089A206807BFCE
:102FBC0001A90023134601A9FDF7A8FF04B070BDB9
:102FCC00284604B070BD00BF2DE9F04F40F2202020
:102FDC008BB040F2EC1540F2182840F21C24C2F2DF
:102FEC000000C2F20005C2F20008C2F20004039015
:102FFC002B681E68D6F1010638BF002600270EB9D3
:10300C00DB681F68FFF76AF8FFF770F8D8F8003034
:10301C009842824659D386F0010387428CBF002325
:10302C0003F0010340F21820C2F20000C0F800A027
:10303C00002B77D1CAEB07012068FEF713FCFFF7D2
:10304C0033F9002800F0958000221346206804A96B
:10305C00FEF770F90028CBD0049B002BF4DBDDF8D5
:10306C001890D9F814301BB109F10400FDF72CFEAF
:10307C00FFF73CF8D8F800300290984245D3049BF7
:10308C000299092BC8F80010DED8012202FA03F3CA
:10309C0013F4047F40F0F98013F0C70F40F0CE809A
:1030AC009B06D1D5484600F0CBFACDE7DB68DE684D
:1030BC00D3F8009006F1040B5846FDF705FE736A31
:1030CC0030469847F369012B3DD02B681A6840F2C3
:1030DC00EC17C2F20007002AE8D10398C8F800A048
:1030EC00026803603A60FFF7DFF8ADE7DB68DE6883
:1030FC00D3F800A006F1040B5846FDF7E5FD736A02
:10310C0030469847F369012B28D02B681A6840F297
:10311C00EC17C2F20007002AE8D10398026803609A
:10312C003A60ACE7FFF7C0F82B68DB68DE6806F1A5
:10313C00040B5846FDF7C8FDF369012B1CD0736ACC
:10314C003046984780E7B3694B444B4535D973609B
:10315C00366138685946FDF79DFDB6E7B3695344AF
:10316C00534543D97360366138685946FDF792FD73
:10317C00CBE700F003F967E7B3693661FA189245BB
:10318C0072604CD3C7EB0A0A534551D823688BB1F4
:10319C000020079008970996FFF7B6FD40F21C2116
:1031AC00C2F2000100220868134607A9FDF7AEFE23
:1031BC000028C4D100F0EEF8FEE723689BB1002193
:1031CC000791CDF820900996FFF79EFD40F21C2147
:1031DC00C2F2000100220868134607A9FDF796FE0B
:1031EC0000287FF472AF00F0D5F8FEE723689BB19E
:1031FC0000220792CDF820A00996FFF785FD40F23A
:10320C001C21C2F2000100220868134607A9FDF731
:10321C007DFE00287FF479AF00F0BCF8FEE740F2A9
:10322C00EC13C2F2000359461868FDF733FD86E72C
:10323C00039A59461068FDF72DFD80E7059BD9F8D8
:10324C0018100298C9F81090CA188242C9F80420C4
:10325C002FD8C31A99423BD8D9F8243048469847FE
:10326C00D9F81C30012B7FF4EFAED9F81820059B50
:10327C0000211A44009148460B46FFF77BFE0028BC
:10328C007FF4E2AE00F086F8FEE7059BC9F8183033
:10329C002BB3029AC9F8109013449342C9F8043026
:1032AC0096BF039B2868186809F10401FDF7F2FC2E
:1032BC00CAE6834294BF00210121934288BF0021BA
:1032CC000029C9D109F104012868FDF7E3FCBBE62C
:1032DC00039A09F104011068FDF7DCFCB4E600F078
:1032EC0059F8FEE710B5044600F078F8646900342C
:1032FC0018BF012400F086F8204610BD006A704704
:10330C0005480068006880F3088862B6BFF34F8FE9
:10331C00BFF36F8F00DF00BF08ED00E0DFF80C009B
:10332C00016841F4700101607047000088ED00E015
:10333C0030B443F2B1334FF080756FF00204C0F635
:10334C00000340F8045C40F8244C40F8081C40F89A
:10335C00202C40F80C3C30BC44387047064B1968A4
:10336C000868B0E8F04F80F30988BFF36F8F4FF017
:10337C00000080F3118870477C0100204EF6045346
:10338C00CEF200034FF080521A60BFF34F8FBFF3A1
:10339C006F8F7047EFF311804FF0500181F311885C
:1033AC007047002008B540F21803C2F200031B68F6
:1033BC00013302D0FFF7EEFFFEE7FFF7EBFFFEE76E
:1033CC0008B540F21803C2F200031B68B3F57A7F0C
:1033DC0002D0FFF7DFFFFEE708BD00BF08B5FFF71F
:1033EC00D9FF40F21803C2F200031A6801321A60C6
:1033FC00BFF34F8FBFF36F8F08BD00BF80F31188F1
:10340C00704700BF08B540F21803C2F200031868F9
:10341C0018B10138186018B108BDFFF7BBFFFEE703
:10342C00BDE80840FFF7EABFEFF30980BFF36F8FE9
:10343C00124B1A681EF0100F08BF20ED108A20E9FD
:10344C00F04F10604DF8043D4FF0500080F31188A0
:10345C00FFF74EFA4FF0000080F3118808BC196892
:10346C000868B0E8F04F1EF0100F08BFB0EC108ADF
:10347C0080F30988BFF36F8F704700BF7C01002079
:10348C0008B5FFF787FFFEF751FE30B14EF6045337
:10349C00CEF200034FF080521A600020BDE80840C5
:1034AC00FFF7ACBF40F21003C2F2000344F6D35254
:1034BC001868C1F26202A2FB00304EF214024EF206
:1034CC0010038009CEF20002CEF20003013807216E
:1034DC0010601960704700BF10B54FF46443CEF212
:1034EC00000382B01978FF22C9B201911A701B78BF
:1034FC00DBB28DF803309DF803409DF8031040F2C9
:10350C00242240F22820C2F20002C2F2000004F091
:10351C00500407230906147003600ED5062300E03F
:10352C000B469DF803205200D2B28DF803209DF873
:10353C000320120603F1FF31F2D4019C4FF46441D5
:10354C00CEF200011B024EF62052CEF2000203F422
:10355C00E063E4B203600C70136843F4700313600F
:10356C00136843F070431360FFF79CFF40F218039D
:10357C00C2F2000300221A60FFF7D0FE4EF634733D
:10358C00CEF200031A6842F040421A60FFF7B8FE10
:10359C00FFF708FF08B5EFF305810F290BD94EF2A1
:1035AC00F03240F22423CEF20002C2F200038A5C15
:1035BC001B78934211D84EF60C52CEF2000240F218
:1035CC002823C2F2000312681B6802F4E0629A42DC
:1035DC0000D808BDFFF7DEFEFEE7FFF7DBFEFEE7D7
:1035EC0038B5430704461CBF20F007040834FEF727
:1035FC0075FD40F22C23C2F200031A681546C2B1C5
:10360C0040F23023C2F2000342F6F7311A68C0F2DE
:10361C00010114448C4207D8A24205D215441C6007
:10362C00FEF742FE284638BD0025FEF73DFE284633
:10363C0038BD024D25F007051D60E1E73C02002076
:10364C0008B510B1FFF7A6FEFEE708BD40F2302327
:10365C00C2F2000300221A60704700BF40F2302310
:10366C00C2F200031868C0F5953000F5FC70704785
:10367C004FF46D4340F0BF60CEF2000340F40030D5
:10368C00D8607047C37870B47BB902784FF461434B
:10369C005109203102F01F020120CEF2000300FA82
:1036AC0002F243F8212070BC70474FF46D43CEF208
:1036BC0000034678DA6884780378D243C2F3022296
:1036CC00C2F104010F25C9B206FA01F145FA02F262
:1036DC00C9B222400A4303F1604303F5614312016E
:1036EC00D2B283F8002302784FF4614302F01F0139
:1036FC0001205209CEF2000300FA01F143F8221026
:10370C0070BC704721F060414FF46D4321F07F0194
:10371C00CEF2000308439860704700BF4FF46D432E
:10372C00CEF200031A6919B922EA00001861704739
:10373C0010431861704700BF4EF21003CEF2000325
:10374C0004281A680CBF42F0040222F004021A602A
:10375C00704700BF08B50023C4F20203984248D05A
:10376C004FF48063C4F2020398424CD04FF40063D0
:10377C00C4F20203984250D04FF44063C4F20203E7
:10378C00984254D04FF48053C4F20203984258D05C
:10379C004FF4A053C4F2020398425CD04FF4C053D0
:1037AC00C4F20203984260D04FF4E053C4F2020317
:1037BC00984264D04FF40053C4F20203984268D08C
:1037CC004FF41053C4F2020398426ED04FF42053BE
:1037DC00C4F20203984200D008BD4FF4806001216E
:1037EC0000F040FB4FF480600021BDE8084000F081
:1037FC0039BB0120014600F035FB01200021BDE85A
:10380C00084000F02FBB0220012100F02BFB02200E
:10381C000021BDE8084000F025BB0420012100F088
:10382C0021FB04200021BDE8084000F01BBB082050
:10383C00012100F017FB08200021BDE8084000F032
:10384C0011BB1020012100F00DFB10200021BDE860
:10385C00084000F007BB2020012100F003FB2020D2
:10386C000021BDE8084000F0FDBA4020012100F025
:10387C00F9FA40200021BDE8084000F0F3BA80209E
:10388C00012100F0EFFA80200021BDE8084000F093
:10389C00E9BA4FF48070012100F0E4FA4FF4807023
:1038AC000021BDE8084000F0DDBA4FF400700121A2
:1038BC0000F0D8FA4FF400700021BDE8084000F089
:1038CC00D1BA00BF00222DE9F00713460E6801277C
:1038DC004FF0030804E00133102B02F102022ED04A
:1038EC0007FA03F404EA0605A542F4D1D0F80090D7
:1038FC0091F804C008FA02F4E44304EA0909C0F898
:10390C000090D0F800900CFA02FA0CF1FF3C5FFA30
:10391C008CFC4AEA0909BCF1010FC0F8009011D9DE
:10392C00C56891F807C02C40C460C5680CFA02F455
:10393C0001332C43102BC46002F10202D0D1BDE83C
:10394C00F0077047D0F808A091F8059091F806C0E0
:10395C0004EA0A0AC0F808A0D0F808A009FA02F98B
:10396C0049EA0A09C0F80890D0F8049029EA05053C
:10397C00456045680CFA03FC1FFA8CFC4CEA050503
:10398C004560CDE700234FF6FF720260037143716F
:10399C008371C371704700BF82B04FF480330193C1
:1039AC00019B0B430193019BC361C161019BC361EB
:1039BC00C3690193C369019302B07047036919424B
:1039CC000CBF002001207047006980B2704700BF17
:1039DC00436919420CBF002001207047406980B236
:1039EC00704700BF01837047418370470AB9418318
:1039FC0070470183704700BF41617047436959406C
:103A0C0041617047CB0800EB830001F0070110B453
:103A1C008900046A0F238B4024EA03030362036AC0
:103A2C005DF8044B8A401343036270474FF46053B4
:103A3C00C4F202030022196841F0010130B419608C
:103A4C009A601D684FF44050014643F2100425F073
:103A5C00A85525F41025C2F20044C2F20041C2F26E
:103A6C0000001D605C60C3F88400C3F888101968FE
:103A7C0021F48021196030BCDA60C3F88C207047C7
:103A8C0043F60203C4F2020300221A701870704746
:103A9C0082B000234FF460520193C4F20202136807
:103AAC009B030FD4019B01330193019BB3F5A04FF2
:103ABC00F5D14FF46053C4F202031868C0F34040D0
:103ACC0002B07047019B01330193019BF1E700BFEA
:103ADC004FF46053C4F202031A6822F0F80242EA6F
:103AEC00C0001860704700BF0023C4F24723186061
:103AFC00704700BF43F67003C4F202030022012892
:103B0C001A701A7005D0042802D105221A70704759
:103B1C0070471870704700BF4FF46863C4F24723B6
:103B2C001860704710B4019C40EA04605B080143C4
:103B3C004FF46054C4F20204013B41EA821242EA9F
:103B4C00034363605DF8044B704700BF6023C4F20D
:103B5C0047231860704700BF12074FF4605342EAC6
:103B6C000161C4F2020341EA8010C3F8840070477B
:103B7C006823C4F247231860704700BF12074FF444
:103B8C00605342EA0161C4F2020341EA8010C3F8B7
:103B9C00880070477023C4F247231860704700BF39
:103BAC004C23C4F247231860704700BF4FF4605396
:103BBC00C4F202039A6822F0EC6211430843986045
:103BCC00704700BF4FF46053C4F202039A6822F0AE
:103BDC007842114308439860704700BF4FF460531C
:103BEC00C4F202039A6822F00302104398607047F3
:103BFC004FF46053C4F20203986800F00C00704755
:103C0C004FF46053C4F202039A6822F0F00210439E
:103C1C00986070474FF46053C4F202039A6822F420
:103C2C00E0521043986070474FF46053C4F20203A3
:103C3C009A6822F4604242EAC0009860704700BF64
:103C4C004FF46053C4F2020310B49A6802F00C02F1
:103C5C00042A24D0082A28D04FF41051C0F2F401C1
:103C6C0001604FF46052C4F2020240F21C039468EB
:103C7C00C2F20003C4F303141C5DE140416094687C
:103C8C00C4F382241C5D21FA04F4846092685DF80C
:103C9C00044BC2F342329B5CD940C16070474FF475
:103CAC009051C0F27A010160DBE75C685A6814F449
:103CBC00800F5C6815BF4FF490534FF41053C0F253
:103CCC007A03C0F2F40302F03F02B3FBF2F14FF4BB
:103CDC006053C4F20203C4F388145B68C3F301435A
:103CEC00013301FB04F15B00B1FBF3F10160B8E7B8
:103CFC0000F44073B3F5407F0CD14FF46053C4F221
:103D0C00020320F070419A6821F4407122F4F812F9
:103D1C000A439A604FF46053C4F20203C0F30B00E1
:103D2C001A6F10431867704740F63C63C4F2472380
:103D3C00186070474FF46463C4F2472318607047EF
:103D4C004FF4AE73C4F24723186070474FF46053BE
:103D5C00C4F202030138D3F88C2022F01F02104366
:103D6C00C3F88C00704700BF4FF46053C4F20203D9
:103D7C000138D3F88C2022F4F85242EA0020C3F820
:103D8C008C0070474FF46053C4F20203D3F88C20BC
:103D9C0022F440121043C3F88C0070474FF4605368
:103DAC00C4F20203D3F88C2022F440021043C3F86F
:103DBC008C0070474FF46053C4F20203D3F88C208C
:103DCC0022F440321043C3F88C0070474FF48F53E9
:103DDC00C4F24723186070474FF46053C4F20203D7
:103DEC001A6B19B922EA0000186370471043186364
:103DFC00704700BF4FF46053C4F202035A6B19B9F9
:103E0C0022EA00005863704710435863704700BFA4
:103E1C004FF46053C4F202039A6B19B922EA000002
:103E2C009863704710439863704700BF4FF460531A
:103E3C00C4F202031A6C19B922EA00001864704724
:103E4C0010431864704700BF4FF46053C4F2020370
:103E5C005A6C19B922EA0000586470471043586430
:103E6C00704700BF4FF46053C4F202031A6919B9CA
:103E7C0022EA00001861704710431861704700BFB8
:103E8C004FF46053C4F202035A6919B922EA0000D4
:103E9C005861704710435861704700BF4FF460532E
:103EAC00C4F202039A6919B922EA000098617047BA
:103EBC0010439861704700BF4FF46053C4F2020383
:103ECC001A6A19B922EA0000186270471043186286
:103EDC00704700BF4FF46053C4F202035A6A19B919
:103EEC0022EA00005862704710435862704700BFC6
:103EFC004FF46053C4F202031A6D19B922EA0000A0
:103F0C001865704710431865704700BF4FF4605335
:103F1C00C4F202035A6D19B922EA000058657047C1
:103F2C0010435865704700BF4FF46053C4F202034E
:103F3C009A6D19B922EA000098657047104398658C
:103F4C00704700BF4FF46053C4F202031A6E19B9E4
:103F5C0022EA00001866704710431866704700BFCD
:103F6C004FF46053C4F202035A6E19B922EA0000EE
:103F7C005866704710435866704700BF43F60D03F0
:103F8C00C4F202031A7819B922EA000018707047BB
:103F9C0010431870704700BF4309012B0ED0022B41
:103FAC004FF46053C4F2020300F01F000CBF1B6FF0
:103FBC005B6F23FA00F000F0010070474FF4605380
:103FCC00C4F2020300F01F001B6823FA00F000F09B
:103FDC00010070474FF46053C4F202035A6F42F071
:103FEC0080725A67704700BF4FF46053C4F20203EB
:103FFC00DB6818420CBF00200120704743F60E030B
:10400C00C4F202031870704708B54FF48053C4F221
:10401C000103984236D04FF48843C4F2000398420F
:10402C003AD04FF49043C4F20003984240D04FF47E
:10403C009843C4F20003984246D04FF4A043C4F214
:10404C00000398424CD04FF4A053C4F201039842A1
:10405C0052D04FF4F043C4F20003984256D04FF4C0
:10406C00F843C4F20003984200D008BD4FF0004062
:10407C000121FFF721FF4FF000400021BDE808406F
:10408C00FFF71ABF10200121FFF724FF1020002199
:10409C00BDE80840FFF71EBF4FF400300121FFF7C9
:1040AC000BFF4FF400300021BDE80840FFF704BFC0
:1040BC004FF480200121FFF7FFFE4FF480200021F8
:1040CC00BDE80840FFF7F8BE4FF400200121FFF7D0
:1040DC00F3FE4FF400200021BDE80840FFF7ECBED2
:1040EC004FF480100121FFF7E7FE4FF48010002100
:1040FC00BDE80840FFF7E0BE20200121FFF7EAFEF3
:10410C0020200021BDE80840FFF7E4BE4FF08040BE
:10411C000121FFF7D1FE4FF080400021BDE808409F
:10412C00FFF7CABE028ACB8822F440521204F0B5C3
:10413C00120C04461A430F898E8848890D468989CA
:10414C002282A38923F4B05347EA060223F00C031E
:10415C0002431B0492B21B0C1343A381A38A23F4C6
:10416C0040731B041B0C85B00B43A3826846FFF7FE
:10417C0067FDA6890298039B4FF4A0514FF480521F
:10418C00C4F20101C4F20102944218BF8C4232B253
:10419C0018BF0346002A2A68A08903EB8303B4BF27
:1041AC005200920003EB8303B3FBF2F348F21F526D
:1041BC00C5F2EB12A2FB035100B264254909002899
:1041CC0001FB1533B5BFDB001B0132333233B5BFF6
:1041DC00A2FB0302A2FB0352C2F34212C2F343122C
:1041EC000901114389B2218105B0F0BD00234FF4C0
:1041FC0016510C22016042818380C380038183812C
:10420C00704700BF30B40A884D888C88038AC988EF
:10421C002A43224323F470630A431B0492B21B0CFF
:10422C001343038230BC7047002303804380838098
:10423C00C3807047838929B923F400531B041B0CDA
:10424C00838170479BB243F400538381704700BF56
:10425C00038B03F47F430383038B9BB219430183CA
:10426C00704700BF838919B9C3F30E03838170476C
:10427C006FEA43436FEA53439BB28381704700BF9D
:10428C00838A29B923F400631B041B0C83827047B7
:10429C009BB243F400638382704700BFC1F30801F3
:1042AC00818070478088C0F308007047038A23F030
:1042BC000F031B041B0C0382038A9BB2194301825C
:1042CC00704700BF838929B923F002031B041B0C20
:1042DC00838170479BB243F002038381704700BF18
:1042EC00838923F400631B041B0C838183899BB299
:1042FC0019438181704700BF038A23F020031B04FC
:10430C001B0C0382038A9BB219430182704700BFC6
:10431C00038A29B923F480431B041B0C03827047C6
:10432C009BB243F480430382704700BF83899BB2E6
:10433C0043F0010383817047838A29B923F0080372
:10434C001B041B0C838270479BB243F008038382CF
:10435C00704700BF038BDBB20383038B9BB243EA32
:10436C0001210183704700BF838A29B923F0200300
:10437C001B041B0C838270479BB243F02003838287
:10438C00704700BF838A29B923F010031B041B0C50
:10439C00838270479BB243F010038382704700BF47
:1043AC00838A23F004031B041B0C8382838A9BB235
:1043BC0019438182704700BF838A29B923F0020315
:1043CC001B041B0C838270479BB243F00203838255
:1043DC00704700BF838A9BB21AB923EA010181821C
:1043EC00704719438182704701F01F0310B4C1F369
:1043FC0042110124A14204FA03F308BF0C3003D08C
:10440C0002290CBF1030143004682AB924EA0303C3
:10441C0003605DF8044B7047234303605DF8044B65
:10442C00704700BF038819420CBF00200120704761
:10443C00C94389B201807047C1F3421330B401F013
:10444C001F020124012B04FA02F416D0022B0CBF1C
:10445C00028A828A92B2224003880125090A05FA4F
:10446C0001F19BB219420CBF00200120002A0CBFA5
:10447C00002000F0010030BC7047828992B22240CB
:10448C00EAE700BF090A012303FA01F1C94389B223
:10449C000180704708B54FF480400121FFF71AFDE9
:1044AC004FF480400021BDE80840FFF713BD00BF6A
:1044BC004FF46053C4F20103186070472023C4F218
:1044CC0027231860704700BF01F0FC0303F1804301
:1044DC0003F59C3301F0030110B489009C680F2292
:1044EC008A4024EA02029A609A685DF8044B88407C
:1044FC0002439A60704700BFDC23C4F22723186084
:10450C00704700BF4FF48063C4F2272318607047D4
:10451C004FF46053C4F20103186AC0F300207047D3
:10452C0008B54FF4A843C4F20003984218D04FF4D6
:10453C00B043C4F2000398421ED04FF4B843C4F207
:10454C000003984200D008BD4FF400000121FFF792
:10455C00B3FC4FF400000021BDE80840FFF7ACBCF1
:10456C004FF400100121FFF7A7FC4FF400100021BD
:10457C00BDE80840FFF7A0BC4FF480000121FFF715
:10458C009BFC4FF480000021BDE80840FFF794BC71
:10459C00F0B5044685B068460D46A688FFF750FB7B
:1045AC004DF6836302992A68C4F21B33A3FB010303
:1045BC0026F03F069F0C3604360C1FFA87FC4CEA9B
:1045CC000606A680238848F2A06023F001031B0492
:1045DC00C0F201001B0C8242238024D85300B1FB93
:1045EC00F3F39BB20CF1010C032B98BF0423A4F83A
:1045FC0020C0A38323886E89A8882989AA899BB2A5
:10460C0043F001032380238823F4816323F0020306
:10461C001B0430431B0C03430A439BB292B223800E
:10462C00228105B0F0BDE8884BF6FF7398421DBFA0
:10463C0002EB820202EB8202B1FBF2F302EB4202CA
:10464C000BBFB1FBF2F39BB29BB243F48043C3F3B9
:10465C000B020AB943F001034FF4967144F6D3529E
:10466C0001FB07F7C1F2620282FB071292090132C9
:10467C0043F400432284BCE7002310B44BF6FF71D3
:10468C0041F288344FF480420460C180828183807F
:10469C00038143815DF8044B704700BF038829B93F
:1046AC0023F001031B041B0C038070479BB243F0E7
:1046BC0001030380704700BF838C21B99BB243F088
:1046CC0010038384704723F010031B041B0C83849A
:1046DC00704700BF838C23F00F031B0401F00F0104
:1046EC001B0C0B4383847047038829B923F4807314
:1046FC001B041B0C038070479BB243F48073038034
:10470C00704700BF038829B923F400731B041B0CEA
:10471C00038070479BB243F400730380704700BF63
:10472C001AB901F0FE010182704741F001010182CA
:10473C00704700BF038829B923F480631B041B0C4A
:10474C00038070479BB243F480630380704700BFC3
:10475C00838923F0FE031B0401F0FE011B0C0B43A9
:10476C0083817047838929B923F001031B041B0C37
:10477C00838170479BB243F001038381704700BF74
:10478C00038829B923F040031B041B0C03807047DA
:10479C009BB243F040030380704700BF038819B9F4
:1047AC00C3F30E03038070476FEA43436FEA53432E
:1047BC009BB20380704700BF038829B123F08003AC
:1047CC001B041B0C038070479BB243F080030380D7
:1047DC00704700BF838BB1F5804F1BBF23F4804320
:1047EC001B049BB21B0C08BF43F4804383837047AC
:1047FC000388B1F5006F15BF23F400639BB21B0453
:10480C0043F4006318BF1B0C038070470388B1F599
:10481C00005F15BF23F400539BB21B0443F40053F9
:10482C0018BF1B0C03807047038829B923F01003B1
:10483C001B041B0C038070479BB243F010030380D6
:10484C00704700BF01827047008AC0B2704700BF3A
:10485C00038829B923F480531B041B0C0380704775
:10486C009BB243F480530380704700BF0388B1F5BB
:10487C00006F15BF23F400639BB21B0443F4006369
:10488C0018BF1B0C03807047038829B923F0200341
:10489C001B041B0C038070479BB243F02003038066
:1048AC00704700BF008BC0F307207047838829B97D
:1048BC0023F400631B041B0C838070479BB243F4EE
:1048CC0000638380704700BF838829B923F4805329
:1048DC001B041B0C838070479BB243F48053838072
:1048EC00704700BF82B0002301930190019B1944D3
:1048FC000191019B188880B202B0704783889BB2EB
:10490C001AB923EA010181807047194381807047ED
:10491C00828A038B90B240EA034021F07F43184017
:10492C000B1A584258417047828A038B90B240EA66
:10493C00034020F07F40704782B000230A0F0093A1
:10494C00019301900092009B21F07F4153B1019B98
:10495C0014330193019B1B6819420CBF00200120EA
:10496C0002B07047019B1833090C0193F2E700BFAA
:10497C00C94389B2818270478388808A80B208409B
:10498C009BB206D001F0E06113EA11410CBF00208C
:10499C0001207047C94389B28182704710B446F236
:1049AC0010020468C4F202020023904224F00104B5
:1049BC000460036043608360C360036104BF4FF411
:1049CC00C043C4F202034FF0210108BF3D224161F4
:1049DC0008BF9A6000F0A28046F22803C4F20203DA
:1049EC00984201BF4FF4C043C4F202034FF4746207
:1049FC009A6000F0938046F24003C4F2020398429E
:104A0C0001BF4FF4C043C4F202034FF474129A6016
:104A1C0000F0848046F25803C4F20203984201BFAE
:104A2C004FF4C043C4F202034FF074629A6075D025
:104A3C0046F27003C4F2020398427BD046F288031C
:104A4C00C4F2020398427ED046F2A003C4F20203E1
:104A5C00984266D046F2B803C4F20203984201BFF2
:104A6C004FF4C043C4F202034FF03D52DA6055D00C
:104A7C0046F21043C4F20203984201BF4FF4C843FC
:104A8C00C4F202033D229A6048D046F22843C4F295
:104A9C000203984201BF4FF4C843C4F202034FF41F
:104AAC0074629A603AD046F24043C4F202039842D0
:104ABC0001BF4FF4C843C4F202034FF474129A605E
:104ACC002CD046F25843C4F20203984201BF4FF473
:104ADC00C843C4F202034FF074629A601ED046F2CF
:104AEC007043C4F20203984237D046F28843C4F2B2
:104AFC00020398423AD046F2A043C4F20203984211
:104B0C003ED046F2B843C4F20203984201BF4FF4C0
:104B1C00C843C4F202034FF03D52DA605DF8044B17
:104B2C0070474FF4C043C4F202030022C2F23D02AC
:104B3C00DA60F3E74FF4C043C4F202033D22C2F241
:104B4C000002DA60EAE74FF4C043C4F202034FF408
:104B5C007462C2F20002DA60E0E74FF4C843C4F2B8
:104B6C0002033D22C2F20002DA60D7E74FF4C843D9
:104B7C00C4F202034FF47462C2F20002DA60CDE7B1
:104B8C004FF4C843C4F202030022C2F23D02DA60C1
:104B9C00C4E700BFCA680B68D0F800C02DE9F0016B
:104BAC004F698E69CD690C6A42EA030848EA070727
:104BBC003E434B6A0F6B35432C4344EA03028C6A29
:104BCC0042EA04034A6B8C6B48F23F061343CFF264
:104BDC001C0623430CEA06061E4306604569CE6A92
:104BEC000C694A688B6825F0070547EA06012943DA
:104BFC00416144608260BDE8F001C360704700BF52
:104C0C000023036043608360C3600361436183617D
:104C1C00C361036243628362C3620363436383635E
:104C2C00704700BF036819B923F001030360704794
:104C3C0043F0010303607047036819B923F4004380
:104C4C000360704743F4004303607047036819B96D
:104C5C0023F020030360704743F020030360704788
:104C6C0041607047406880B2704700BF036822B94A
:104C7C0023F4002303600161704743F400230360B5
:104C8C0001617047036819B923F4802303607047EE
:104C9C0043F48023036070470AB9C1607047016117
:104CAC00704700BF0068C0F3C0407047006800F058
:104CBC0001007047406900F03800704710B44FF4A1
:104CCC00C84246F20F444FF4C043C4F20203C4F28C
:104CDC000204C4F20202A0428CBF104618468B009C
:104CEC004CBF436803685DF8044B21F0F02121F0C0
:104CFC00821119420CBF00200120704710B44FF4F0
:104D0C00C84246F20F444FF4C043C4F20204C4F24A
:104D1C000202C4F20203A0428CBF1046184611F0E6
:104D2C00005F21F0F02121F0821114BFC16081607D
:104D3C005DF8044B704700BF0B060CD54369AAB154
:104D4C0043F08003802943610FD0036801F01E01FA
:104D5C00194301607047802907D0002AF5D10368F8
:104D6C0001F01E0123EA01010160704723F080036A
:104D7C0080294361F3D1704770B44FF4C04246F2BE
:104D8C000F454FF4C84421F0F023C4F20205C4F2DD
:104D9C000204C4F2020223F0C316A84288BF2246C2
:104DAC0096B1046804F01E0404EAD12489004CBFB7
:104DBC005268126823F0821313EA020002D0201CFE
:104DCC0018BF012070BC7047446904F08004EDE703
:104DDC0010B44FF4C84246F20F444FF4C043C4F22F
:104DEC000204C4F20202C4F20203A0428CBF1046B9
:104DFC00184611F0005F21F0F02121F0821114BF50
:104E0C00C16081605DF8044B704700BF08B54FF47A
:104E1C004053C4F2010398422AD04FF46053C4F2B9
:104E2C000003984230D04FF47053C4F20003984200
:104E3C0036D04FF45053C4F2010398423CD04FF497
:104E4C00A043C4F20103984242D04FF4A843C4F2E9
:104E5C000103984200D008BD4FF400100121FFF768
:104E6C0039F84FF400100021BDE80840FFF732B8C4
:104E7C004FF480500121FFF72DF84FF480500021A2
:104E8C00BDE80840FFF726B84FF480400121FFF73A
:104E9C0013F84FF480400021BDE80840FFF70CB830
:104EAC004FF400400121FFF707F84FF400400021B8
:104EBC00BDE80840FFF700B84FF400500121FFF7A0
:104ECC0009F84FF400500021BDE80840FFF702B884
:104EDC004FF480100121FEF7FDFF4FF480100021EC
:104EEC00BDE80840FEF7F6BF2DE9F007B1F802A0C7
:104EFC00B1F80090B1F804800F894E898D89CC8966
:104F0C00B1F806C00A8A03884AEA090141EA080195
:104F1C0041EA0C01394331432943214303F4415302
:104F2C000B439BB20380838B23F400631B041B0C89
:104F3C008383BDE8F0070282704700BF838B8A68C9
:104F4C0023F47B6323F00F031B042DE9F0031B0CEC
:104F5C00022483830484868BA242B6B263D04FF4BE
:104F6C006053C4F202038C889D68002C0CBF4FF078
:104F7C0020084FF040082D0242BF9D6825F4000523
:104F8C009D604FF46053C4F202034FF49055D3F874
:104F9C0084C0D3F88470D3F80490CB8809F03F090F
:104FAC00C0F27A05B5FBF9F5CCF3881C0CFB05FCBB
:104FBC00C7F30277B3F5007FBCFBF7F713BFB7FB62
:104FCC00F8F53F0A07EB870705EB85050BBF7F005C
:104FDC006D00B7FBF2F2B5FBF2F205324CF6CD45A3
:104FEC00CCF6CC4592B2A5FB0272D2085508AF1E86
:104FFC00BFB202F00102FD2F94BF45EA0222022249
:10500C00B1F800C04F888D8946EA0C0141F400616B
:10501C0039432943134389B20C439BB203848483E1
:10502C00BDE8F00370478C88CB88E9E700230722A2
:10503C000282038043808380C38003814381838108
:10504C00C381704700230222826003604360838126
:10505C00704700BF038829B923F040031B041B0CC5
:10506C00038070479BB243F040030380704700BF3E
:10507C00838B29B923F480631B041B0C8383704737
:10508C009BB243F480638383704700BF038823F48F
:10509C0000631B041B0C038003889BB21943018023
:1050AC00704700BF0388B1F5804F15BF23F48043D0
:1050BC009BB21B0443F4804318BF1B0C0380704746
:1050CC004FF6FF63994203880BBF23F480739BB2A6
:1050DC001B0443F4807308BF1B0C0380704700BF94
:1050EC00838829B923F004031B041B0C83807047AD
:1050FC009BB243F004038380704700BF838829B9B7
:10510C0023F010031B041B0C838070479BB243F0ED
:10511C0010038380704700BF838B23F47B6323F0E1
:10512C000F031B0402221B0C83830284828B0B88CB
:10513C0030B44D888C88898992B22A4342F400623B
:10514C0023F4007322431B040A431B0C92B2002B62
:10515C000CBF4FF4807300231343838330BC704720
:10516C00808980B2704700BF81817047038829B95C
:10517C0023F400531B041B0C038070479BB243F4B5
:10518C0000530380704700BF03889BB243F48053E5
:10519C0003807047012914BF008B808A80B270474E
:1051AC00008A80B2704700BF83889BB21AB923EA89
:1051BC0001018180704719438180704701230909DF
:1051CC0003FA01F1838889B29BB21AB923EA01016F
:1051DC008180704719438180704700BF0389194251
:1051EC000CBF002001207047C94389B20181704770
:1051FC0010B48488008901F00F03012280B202FAF6
:10520C0003F31840A4B205D009098A4014420CBF1C
:10521C00002001205DF8044B704700BF01F00F0126
:10522C00012303FA01F1C94389B20181704700BF20
:10523C004FF47053C4F201034FF6FF710022C0F219
:10524C007F011A605A609A60DA605961704700BF3A
:10525C00837970B443B34FF47053C4F20103016803
:10526C001E6802794579CC4326401E605E6802F1C7
:10527C00804202F59E3234405C6014682143116018
:10528C0002689868D14308409860D868102D01EAEC
:10529C000001D96014D005F1804505F59E352B68C9
:1052AC001A432A6070BC70470379016803F180438C
:1052BC0003F59E3370BC1A6822EA01021A6070472B
:1052CC00996811439960D9680A43DA6070BC7047D9
:1052DC0000230C224271036003718371704700BF7D
:1052EC004FF47053C4F201031A69104318617047EC
:1052FC004FF47053C4F201035B6918420CBF0020D9
:10530C00012070474FF47053C4F201035861704789
:10531C004FF47053C4F201035B6918420CBF0020B8
:10532C00012070474FF47053C4F201035861704769
:10533C0008B54FF400000121FEF794FD4FF4000076
:10534C000021BDE80840FEF78DBD00BF4FF430438F
:10535C00C4F2020370B41A6822F0031222F4F85259
:10536C001A60196802680A431A605A6B22F0070225
:10537C005A63596B426811435963C6680569002A20
:10538C003AD0012A02BF36022D0400240FD0022A83
:10539C0002BF7601ED02002409D04469032A03BF41
:1053AC007601AD02E40336011CBF2D0224034FF439
:1053BC003043C4F202038268996B1143314341EAD2
:1053CC00050222439A638269DA631A6C22F47F52D3
:1053DC0022F03F021A64196CC2690A431A645A6CAF
:1053EC00416A02F040425A64026A586C024342EA33
:1053FC0001425A6470BC7047446936022D0424067D
:10540C00D5E700BF002303604360C3608360036182
:10541C0043618361C3610362436270474FF430435D
:10542C00C4F202031A6842F001021A60704700BF0E
:10543C004FF43043C4F202031A6842F004021A60BB
:10544C00704700BF4FF43043C4F202031A6818B916
:10545C0022F002021A60704742F002021A60704792
:10546C004FF43043C4F202030168F0B4D9601969F7
:10547C0021F47F5121F03F0119611C6941682143DE
:10548C001961D969C022C0F2FC020A40DA61DF69F5
:10549C008668C5680469416982693E4346EA051518
:1054AC0045EA042444EA014141EA0262DA611A6ADB
:1054BC0002F07F421A621D6AC469016A426A2C4377
:1054CC0044EA012141EA02421A62826AF0BCDA62C1
:1054DC00704700BF0023036043608360C3600361B7
:1054EC0043618361C361036243628362704700BF9F
:1054FC004FF43043C4F202030168F0B45961996966
:10550C0021F47F5121F03F0199619C69416821434D
:10551C009961596AC022C0F2FC020A405A625F6A61
:10552C008668C5680469416982693E4346EA051587
:10553C0045EA042444EA014141EA02625A629A6A49
:10554C0002F07F429A629D6AC469016A426A2C43E6
:10555C0044EA012141EA02429A62826AF0BC1A636F
:10556C00704700BF0023036043608360C360036126
:10557C0043618361C361036243628362704700BF0E
:10558C004FF43043C4F20203DA6918B922F0200256
:10559C00DA61704742F02002DA6170474FF4304311
:1055AC00C4F202035A6A18B922F020025A627047F8
:1055BC0042F020025A6270474FF43043C4F20203A7
:1055CC00DA6C19B922F00102DA64704722F47F42D6
:1055DC0022F00102DA64DA6C42F0010242EA0020A5
:1055EC00D86470474FF43043C4F202039864704798
:1055FC004FF43043C4F202031A6819B922EA0000CE
:10560C001860704710431860704700BF4FF4304368
:10561C00C4F202035B6818420CBF002001207047E3
:10562C004FF43043C4F20203986070474FF4304398
:10563C00C4F202035A681B68034005D012EA10201A
:10564C000CBF002001207047184670474FF43043C0
:10565C00C4F20203000A9860704700BF08B54FF00F
:10566C0080600121FEF736FC4FF080600021BDE820
:10567C000840FEF72FBC00BF4FF4D043C4F2010327
:10568C004FF478429968CFF20002114070B49960DF
:10569C009D68446901692C4344EA01419960D968C9
:1056AC001140D960DD68C46981692C4344EA014129
:1056BC00D9601969114019611D69446A016A2C434A
:1056CC0044EA0141196159690A405A615C69C16A2D
:1056DC00826A214341EA02425A61996948F68F0273
:1056EC00C0F6FE720A409A619E690568446881683A
:1056FC00C26835432C4321430A439A61DA6A446BEE
:10570C00016B02F07F42DA62826BD86A024342EA92
:10571C00042242EA0142DA6270BC70470023036043
:10572C0043608360C360036143618361C36103624F
:10573C0043628362C362036343638363704700BF46
:10574C004FF4D043C4F201039A6918B922F0010254
:10575C009A61704742F001029A6170474FF4D0434E
:10576C00C4F201039A6918B922F480329A61704725
:10577C0042F480329A6170474FF4D043C4F2010373
:10578C0048F68F029969C0F6FE720A4010B49A610D
:10579C009C6999699A69C4F30214C1F30221C2F39A
:1057AC0002320460416082605DF8044B704700BFB8
:1057BC000223036043608360704700BF4FF4D04303
:1057CC00C4F20103186470474FF4D043C4F20103D0
:1057DC00586270474368D1F81CC02DE9F00F03F4F0
:1057EC00704B91E80C0042EA0342D1F80CA0D1F8BE
:1057FC000890D1F820808F690D694E6A4C69C0F809
:10580C0004B042608368D1F82CB08A6A49EA0A492C
:10581C0003F470438360C0F808900369D1F83090AA
:10582C004FEA084848EA0C2C23F007034CEA070718
:10583C00036147EA06660561002385698361866119
:10584C00456925F0FF0545614461C46924F4E064B1
:10585C004BEA020224F00704C461C261826A8362CB
:10586C00C0F82890C56A8C6B4A6BCB6B42EA044239
:10587C0005F0E021C162C262026B22F4FF6222F0E9
:10588C00070282B00263036302B0BDE8F00F7047F9
:10589C00002310B44FF4C061FF24072244618162DD
:1058AC00C262036043608360C36003618361C36150
:1058BC0003624362036343638363C3635DF8044B16
:1058CC00704700BF036819B923F0010303607047E8
:1058DC0043F00103036070474FF4D043C4F201035B
:1058EC000022596C5A64596C5A6C090C92B280E8BB
:1058FC000600704700230360436070474FF4D043A9
:10590C00C4F201039B6C18420CBF002001207047AD
:10591C0030B45AB9036823F0020303604FF4D04348
:10592C00C4F2010301225A6230BC704705684C680E
:10593C008A680B6845F002010160C16801F07F4183
:10594C00C160C1680B4343EA042343EA0243C360CA
:10595C00E4E700BF0023036043608360704700BF2F
:10596C00036849B923F0100303604FF4D043C4F229
:10597C00010301225A62704743F010030360F4E7FD
:10598C0030B491E83400CB681B0443EA052323436D
:10599C0043EA0263036430BC704700BF002303601A
:1059AC0043608360C360704730B4446804F470444F
:1059BC00446084684FF4D043C4F2010304F470448F
:1059CC008460DC680369A5B2013501EB14412A44FB
:1059DC004C1C042553B1012B08BF032506D0991E7E
:1059EC00022918D9072B18BF012514D0C16A036BE3
:1059FC00C1F30C010339C3F30A03B1FBF5F1013B0D
:105A0C00651E2944134444EA014442EA03424460BB
:105A1C00826030BC70470225E8E700BF41617047E7
:105A2C00816270470369F0B42BB3012B08BF0323C9
:105A3C0006D09C1E022C1CD9072B18BF012318D092
:105A4C0045688468C5F30C05C4F30C0401FB03F32F
:105A5C006E1E671E31441744DE1C45EA014544EABC
:105A6C00074446EA034345608460C362F0BC0263AA
:105A7C0070470223E4E70423E2E700BF0369042232
:105A8C003BB1012B08BF032203D09A1E022A1BD85C
:105A9C000222C36A1B0CB3FBF2F3042261B101298D
:105AAC0008BF032208D08A1E022A98BF022203D9FB
:105ABC0007290CBF0222012203FB02F3DA1C42EA83
:105ACC000343C36201617047072B18BF0122E0D169
