:020000040800F2
:1000000000000320C10100080502000805020008E5
:1000100005020008050200080502000800000000B3
:1000200000000000000000000000000005020008C1
:100030000502000800000000050200080502000893
:100040000502000805020008050200080502000874
:1000500005020008050200087504000805020008F2
:100060000502000805020008050200080502000854
:100070000502000805020008050200080502000844
:100080000502000805020008050200080502000834
:100090000502000805020008050200080502000824
:1000A0000502000805020008050200080502000814
:1000B0000502000805020008050200080502000804
:1000C00005020008050200080502000805020008F4
:1000D00005020008050200080502000805020008E4
:1000E00005020008050200080502000805020008D4
:1000F00005020008050200080502000805020008C4
:1001000005020008050200080502000805020008B3
:1001100005020008050200080502000805020008A3
:100120000502000805020008050200080502000893
:100130000502000805020008050200080502000883
:100140000502000805020008050200080502000873
:100150000502000805020008050200080502000863
:100160000502000805020008050200080502000853
:100170000502000805020008050200080502000843
:100180000502000805020008050200080502000833
:100190000502000805020008050200080502000823
:0C01A00005020008050200080502000826
:1001AC00C0310008000000202400002024000020A2
:1001BC0028000020002103E00A4B5B584350043117
:1001CC0009480A4B42189A42F6D3094A02E0002326
:1001DC0042F8043B074B9A42F9D300F00FF800F0B9
:1001EC0059F97047C031000800000020240000209D
:1001FC002400002028000020FEE700004FF46D4290
:10020C00CEF200024FF46053D2F88810C4F202030D
:10021C0041F47001C2F888101968002241F0010104
:10022C0019609A60186843F2100120F08470C2F2D1
:10023C00004120F4803018605960196882B021F4B4
:10024C0080211960DA60009201921A6842F48032BF
:10025C001A601A4603E0009BB3F5A04F09D013684F
:10026C0003F400330193009B01330093019B002B9B
:10027C00F1D04FF46053C4F202031B6813F4003343
:10028C0018BF01230193019B012B08D04FF46D4340
:10029C00CEF200034FF000629A6002B070474FF448
:1002AC006053C4F202034FF4E042196CC4F2000232
:1002BC0041F080511964116841F4404111609A6811
:1002CC009A609A6842F400429A60996844F619322E
:1002DC0041F4A051C0F2407299605A601A6842F021
:1002EC0080721A6019460A684FF460539201C4F286
:1002FC000203F8D54FF47052C4F2020240F20461CA
:10030C0011609A6822F003029A609A6842F0020225
:10031C009A609A6802F00C02082AFAD1B6E700BF7C
:10032C004FF46053C4F202039A6802F00C02042AE0
:10033C003AD0082A16D04FF41051C0F2F4014FF401
:10034C006053C4F2020340F200029868C2F2000249
:10035C00C0F3031040F21003125CC2F20003D14050
:10036C001960704758685A6810F4800F586815BFA8
:10037C004FF490534FF41053C0F27A03C0F2F403CD
:10038C0002F03F02B3FBF2F14FF46053C4F20203EC
:10039C00C0F388105B68C3F30143013301FB00F128
:1003AC005B00B1FBF3F1CAE74FF49051C0F27A0154
:1003BC00C5E700BF08B54020012100F025FC012055
:1003CC000146BDE8084000F01FBC00BF30B54FF43B
:1003DC00C05085B000244FF4C04201230325694668
:1003EC00C4F2020000928DF804308DF806408DF8AE
:1003FC0007408DF8055000F07DF920464FF48062DF
:10040C000223C4F2020002A98DF80C408DF80E40B4
:10041C008DF80D5002928DF80F3000F06BF905B08D
:10042C0030BD00BF10B5002084B0014600F064FF61
:10043C0001240022102302A88DF80C208DF80D3019
:10044C0002948DF80E4001F01BFE0F23062201A82A
:10045C008DF807408DF804208DF805308DF80630A6
:10046C0000F028F804B010BD08B5012001F058FECA
:10047C0000B908BD0022C4F202024FF4C053126945
:10048C00C4F2020352035A610120BDE8084001F096
:10049C0061BE00BF08B5FFF78DFFFFF797FFFEE7C2
:1004AC004FF46D4340F0BF60CEF2000340F40030D7
:1004BC00D8607047C37870B47BB902784FF461434D
:1004CC005109203102F01F020120CEF2000300FA84
:1004DC0002F243F8212070BC70474FF46D43CEF20A
:1004EC0000034678DA6884780378D243C2F3022298
:1004FC00C2F104010F25C9B206FA01F145FA02F264
:10050C00C9B222400A4303F1604303F5614312016F
:10051C00D2B283F8002302784FF4614302F01F013A
:10052C0001205209CEF2000300FA01F143F8221027
:10053C0070BC704721F060414FF46D4321F07F0196
:10054C00CEF2000308439860704700BF4FF46D4330
:10055C00CEF200031A6919B922EA0000186170473B
:10056C0010431861704700BF4EF21003CEF2000327
:10057C0004281A680CBF42F0040222F004021A602C
:10058C00704700BF08B50023C4F20203984248D05C
:10059C004FF48063C4F2020398424CD04FF40063D2
:1005AC00C4F20203984250D04FF44063C4F20203E9
:1005BC00984254D04FF48053C4F20203984258D05E
:1005CC004FF4A053C4F2020398425CD04FF4C053D2
:1005DC00C4F20203984260D04FF4E053C4F2020319
:1005EC00984264D04FF40053C4F20203984268D08E
:1005FC004FF41053C4F2020398426ED04FF42053C0
:10060C00C4F20203984200D008BD4FF4806001216F
:10061C0000F040FB4FF480600021BDE8084000F082
:10062C0039BB0120014600F035FB01200021BDE85B
:10063C00084000F02FBB0220012100F02BFB022010
:10064C000021BDE8084000F025BB0420012100F08A
:10065C0021FB04200021BDE8084000F01BBB082052
:10066C00012100F017FB08200021BDE8084000F034
:10067C0011BB1020012100F00DFB10200021BDE862
:10068C00084000F007BB2020012100F003FB2020D4
:10069C000021BDE8084000F0FDBA4020012100F027
:1006AC00F9FA40200021BDE8084000F0F3BA8020A0
:1006BC00012100F0EFFA80200021BDE8084000F095
:1006CC00E9BA4FF48070012100F0E4FA4FF4807025
:1006DC000021BDE8084000F0DDBA4FF400700121A4
:1006EC0000F0D8FA4FF400700021BDE8084000F08B
:1006FC00D1BA00BF00222DE9F00713460E6801277E
:10070C004FF0030804E00133102B02F102022ED04B
:10071C0007FA03F404EA0605A542F4D1D0F80090D8
:10072C0091F804C008FA02F4E44304EA0909C0F899
:10073C000090D0F800900CFA02FA0CF1FF3C5FFA32
:10074C008CFC4AEA0909BCF1010FC0F8009011D9E0
:10075C00C56891F807C02C40C460C5680CFA02F457
:10076C0001332C43102BC46002F10202D0D1BDE83E
:10077C00F0077047D0F808A091F8059091F806C0E2
:10078C0004EA0A0AC0F808A0D0F808A009FA02F98D
:10079C0049EA0A09C0F80890D0F8049029EA05053E
:1007AC00456045680CFA03FC1FFA8CFC4CEA050505
:1007BC004560CDE700234FF6FF7202600371437171
:1007CC008371C371704700BF82B04FF480330193C3
:1007DC00019B0B430193019BC361C161019BC361ED
:1007EC00C3690193C369019302B07047036919424D
:1007FC000CBF002001207047006980B2704700BF19
:10080C00436919420CBF002001207047406980B237
:10081C00704700BF01837047418370470AB9418319
:10082C0070470183704700BF41617047436959406D
:10083C0041617047CB0800EB830001F0070110B455
:10084C008900046A0F238B4024EA03030362036AC2
:10085C005DF8044B8A401343036270474FF46053B6
:10086C00C4F202030022196841F0010130B419608E
:10087C009A601D684FF44050014643F2100425F075
:10088C00A85525F41025C2F20044C2F20041C2F270
:10089C0000001D605C60C3F88400C3F88810196800
:1008AC0021F48021196030BCDA60C3F88C207047C9
:1008BC0043F60203C4F2020300221A701870704748
:1008CC0082B000234FF460520193C4F20202136809
:1008DC009B030FD4019B01330193019BB3F5A04FF4
:1008EC00F5D14FF46053C4F202031868C0F34040D2
:1008FC0002B07047019B01330193019BF1E700BFEC
:10090C004FF46053C4F202031A6822F0F80242EA70
:10091C00C0001860704700BF0023C4F24723186062
:10092C00704700BF43F67003C4F202030022012893
:10093C001A701A7005D0042802D105221A7070475B
:10094C0070471870704700BF4FF46863C4F24723B8
:10095C001860704710B4019C40EA04605B080143C6
:10096C004FF46054C4F20204013B41EA821242EAA1
:10097C00034363605DF8044B704700BF6023C4F20F
:10098C0047231860704700BF12074FF4605342EAC8
:10099C000161C4F2020341EA8010C3F8840070477D
:1009AC006823C4F247231860704700BF12074FF446
:1009BC00605342EA0161C4F2020341EA8010C3F8B9
:1009CC00880070477023C4F247231860704700BF3B
:1009DC004C23C4F247231860704700BF4FF4605398
:1009EC00C4F202039A6822F0EC6211430843986047
:1009FC00704700BF4FF46053C4F202039A6822F0B0
:100A0C007842114308439860704700BF4FF460531D
:100A1C00C4F202039A6822F00302104398607047F4
:100A2C004FF46053C4F20203986800F00C00704756
:100A3C004FF46053C4F202039A6822F0F0021043A0
:100A4C00986070474FF46053C4F202039A6822F422
:100A5C00E0521043986070474FF46053C4F20203A5
:100A6C009A6822F4604242EAC0009860704700BF66
:100A7C004FF46053C4F2020310B49A6802F00C02F3
:100A8C00042A24D0082A28D04FF41051C0F2F401C3
:100A9C0001604FF46052C4F2020240F214039468F5
:100AAC00C2F20003C4F303141C5DE140416094687E
:100ABC00C4F382241C5D21FA04F4846092685DF80E
:100ACC00044BC2F342329B5CD940C16070474FF477
:100ADC009051C0F27A010160DBE75C685A6814F44B
:100AEC00800F5C6815BF4FF490534FF41053C0F255
:100AFC007A03C0F2F40302F03F02B3FBF2F14FF4BD
:100B0C006053C4F20203C4F388145B68C3F301435B
:100B1C00013301FB04F15B00B1FBF3F10160B8E7B9
:100B2C0000F44073B3F5407F0CD14FF46053C4F222
:100B3C00020320F070419A6821F4407122F4F812FB
:100B4C000A439A604FF46053C4F20203C0F30B00E3
:100B5C001A6F10431867704740F63C63C4F2472382
:100B6C00186070474FF46463C4F2472318607047F1
:100B7C004FF4AE73C4F24723186070474FF46053C0
:100B8C00C4F202030138D3F88C2022F01F02104368
:100B9C00C3F88C00704700BF4FF46053C4F20203DB
:100BAC000138D3F88C2022F4F85242EA0020C3F822
:100BBC008C0070474FF46053C4F20203D3F88C20BE
:100BCC0022F440121043C3F88C0070474FF460536A
:100BDC00C4F20203D3F88C2022F440021043C3F871
:100BEC008C0070474FF46053C4F20203D3F88C208E
:100BFC0022F440321043C3F88C0070474FF48F53EB
:100C0C00C4F24723186070474FF46053C4F20203D8
:100C1C001A6B19B922EA0000186370471043186365
:100C2C00704700BF4FF46053C4F202035A6B19B9FA
:100C3C0022EA00005863704710435863704700BFA6
:100C4C004FF46053C4F202039A6B19B922EA000004
:100C5C009863704710439863704700BF4FF460531C
:100C6C00C4F202031A6C19B922EA00001864704726
:100C7C0010431864704700BF4FF46053C4F2020372
:100C8C005A6C19B922EA0000586470471043586432
:100C9C00704700BF4FF46053C4F202031A6919B9CC
:100CAC0022EA00001861704710431861704700BFBA
:100CBC004FF46053C4F202035A6919B922EA0000D6
:100CCC005861704710435861704700BF4FF4605330
:100CDC00C4F202039A6919B922EA000098617047BC
:100CEC0010439861704700BF4FF46053C4F2020385
:100CFC001A6A19B922EA0000186270471043186288
:100D0C00704700BF4FF46053C4F202035A6A19B91A
:100D1C0022EA00005862704710435862704700BFC7
:100D2C004FF46053C4F202031A6D19B922EA0000A1
:100D3C001865704710431865704700BF4FF4605337
:100D4C00C4F202035A6D19B922EA000058657047C3
:100D5C0010435865704700BF4FF46053C4F2020350
:100D6C009A6D19B922EA000098657047104398658E
:100D7C00704700BF4FF46053C4F202031A6E19B9E6
:100D8C0022EA00001866704710431866704700BFCF
:100D9C004FF46053C4F202035A6E19B922EA0000F0
:100DAC005866704710435866704700BF43F60D03F2
:100DBC00C4F202031A7819B922EA000018707047BD
:100DCC0010431870704700BF4309012B0ED0022B43
:100DDC004FF46053C4F2020300F01F000CBF1B6FF2
:100DEC005B6F23FA00F000F0010070474FF4605382
:100DFC00C4F2020300F01F001B6823FA00F000F09D
:100E0C00010070474FF46053C4F202035A6F42F072
:100E1C0080725A67704700BF4FF46053C4F20203EC
:100E2C00DB6818420CBF00200120704743F60E030C
:100E3C00C4F202031870704708B54FF48053C4F223
:100E4C000103984236D04FF48843C4F20003984211
:100E5C003AD04FF49043C4F20003984240D04FF480
:100E6C009843C4F20003984246D04FF4A043C4F216
:100E7C00000398424CD04FF4A053C4F201039842A3
:100E8C0052D04FF4F043C4F20003984256D04FF4C2
:100E9C00F843C4F20003984200D008BD4FF0004064
:100EAC000121FFF721FF4FF000400021BDE8084071
:100EBC00FFF71ABF10200121FFF724FF102000219B
:100ECC00BDE80840FFF71EBF4FF400300121FFF7CB
:100EDC000BFF4FF400300021BDE80840FFF704BFC2
:100EEC004FF480200121FFF7FFFE4FF480200021FA
:100EFC00BDE80840FFF7F8BE4FF400200121FFF7D2
:100F0C00F3FE4FF400200021BDE80840FFF7ECBED3
:100F1C004FF480100121FFF7E7FE4FF48010002101
:100F2C00BDE80840FFF7E0BE20200121FFF7EAFEF4
:100F3C0020200021BDE80840FFF7E4BE4FF08040C0
:100F4C000121FFF7D1FE4FF080400021BDE80840A1
:100F5C00FFF7CABE028ACB8822F440521204F0B5C5
:100F6C00120C04461A430F898E8848890D468989CC
:100F7C002282A38923F4B05347EA060223F00C0320
:100F8C0002431B0492B21B0C1343A381A38A23F4C8
:100F9C0040731B041B0C85B00B43A3826846FFF700
:100FAC0067FDA6890298039B4FF4A0514FF4805221
:100FBC00C4F20101C4F20102944218BF8C4232B255
:100FCC0018BF0346002A2A68A08903EB8303B4BF29
:100FDC005200920003EB8303B3FBF2F348F21F526F
:100FEC00C5F2EB12A2FB035100B26425490900289B
:100FFC0001FB1533B5BFDB001B0132333233B5BFF8
:10100C00A2FB0302A2FB0352C2F34212C2F343122D
:10101C000901114389B2218105B0F0BD00234FF4C1
:10102C0016510C22016042818380C380038183812D
:10103C00704700BF30B40A884D888C88038AC988F1
:10104C002A43224323F470630A431B0492B21B0C01
:10105C001343038230BC704700230380438083809A
:10106C00C3807047838929B923F400531B041B0CDC
:10107C00838170479BB243F400538381704700BF58
:10108C00038B03F47F430383038B9BB219430183CC
:10109C00704700BF838919B9C3F30E03838170476E
:1010AC006FEA43436FEA53439BB28381704700BF9F
:1010BC00838A29B923F400631B041B0C83827047B9
:1010CC009BB243F400638382704700BFC1F30801F5
:1010DC00818070478088C0F308007047038A23F032
:1010EC000F031B041B0C0382038A9BB2194301825E
:1010FC00704700BF838929B923F002031B041B0C22
:10110C00838170479BB243F002038381704700BF19
:10111C00838923F400631B041B0C838183899BB29A
:10112C0019438181704700BF038A23F020031B04FD
:10113C001B0C0382038A9BB219430182704700BFC8
:10114C00038A29B923F480431B041B0C03827047C8
:10115C009BB243F480430382704700BF83899BB2E8
:10116C0043F0010383817047838A29B923F0080374
:10117C001B041B0C838270479BB243F008038382D1
:10118C00704700BF038BDBB20383038B9BB243EA34
:10119C0001210183704700BF838A29B923F0200302
:1011AC001B041B0C838270479BB243F02003838289
:1011BC00704700BF838A29B923F010031B041B0C52
:1011CC00838270479BB243F010038382704700BF49
:1011DC00838A23F004031B041B0C8382838A9BB237
:1011EC0019438182704700BF838A29B923F0020317
:1011FC001B041B0C838270479BB243F00203838257
:10120C00704700BF838A9BB21AB923EA010181821D
:10121C00704719438182704701F01F0310B4C1F36A
:10122C0042110124A14204FA03F308BF0C3003D08D
:10123C0002290CBF1030143004682AB924EA0303C5
:10124C0003605DF8044B7047234303605DF8044B67
:10125C00704700BF038819420CBF00200120704763
:10126C00C94389B201807047C1F3421330B401F015
:10127C001F020124012B04FA02F416D0022B0CBF1E
:10128C00028A828A92B2224003880125090A05FA51
:10129C0001F19BB219420CBF00200120002A0CBFA7
:1012AC00002000F0010030BC7047828992B22240CD
:1012BC00EAE700BF090A012303FA01F1C94389B225
:1012CC000180704708B54FF480400121FFF71AFDEB
:1012DC004FF480400021BDE80840FFF713BD00BF6C
:1012EC004FF46053C4F20103186070472023C4F21A
:1012FC0027231860704700BF01F0FC0303F1804303
:10130C0003F59C3301F0030110B489009C680F2293
:10131C008A4024EA02029A609A685DF8044B88407D
:10132C0002439A60704700BFDC23C4F22723186085
:10133C00704700BF4FF48063C4F2272318607047D6
:10134C004FF46053C4F20103186AC0F300207047D5
:10135C0008B54FF4A843C4F20003984218D04FF4D8
:10136C00B043C4F2000398421ED04FF4B843C4F209
:10137C000003984200D008BD4FF400000121FFF794
:10138C00B3FC4FF400000021BDE80840FFF7ACBCF3
:10139C004FF400100121FFF7A7FC4FF400100021BF
:1013AC00BDE80840FFF7A0BC4FF480000121FFF717
:1013BC009BFC4FF480000021BDE80840FFF794BC73
:1013CC00F0B5044685B068460D46A688FFF750FB7D
:1013DC004DF6836302992A68C4F21B33A3FB010305
:1013EC0026F03F069F0C3604360C1FFA87FC4CEA9D
:1013FC000606A680238848F2A06023F001031B0494
:10140C00C0F201001B0C8242238024D85300B1FB94
:10141C00F3F39BB20CF1010C032B98BF0423A4F83B
:10142C0020C0A38323886E89A8882989AA899BB2A6
:10143C0043F001032380238823F4816323F0020308
:10144C001B0430431B0C03430A439BB292B2238010
:10145C00228105B0F0BDE8884BF6FF7398421DBFA2
:10146C0002EB820202EB8202B1FBF2F302EB4202CC
:10147C000BBFB1FBF2F39BB29BB243F48043C3F3BB
:10148C000B020AB943F001034FF4967144F6D352A0
:10149C0001FB07F7C1F2620282FB071292090132CB
:1014AC0043F400432284BCE7002310B44BF6FF71D5
:1014BC0041F288344FF480420460C1808281838081
:1014CC00038143815DF8044B704700BF038829B941
:1014DC0023F001031B041B0C038070479BB243F0E9
:1014EC0001030380704700BF838C21B99BB243F08A
:1014FC0010038384704723F010031B041B0C83849C
:10150C00704700BF838C23F00F031B0401F00F0105
:10151C001B0C0B4383847047038829B923F4807315
:10152C001B041B0C038070479BB243F48073038035
:10153C00704700BF038829B923F400731B041B0CEC
:10154C00038070479BB243F400730380704700BF65
:10155C001AB901F0FE010182704741F001010182CC
:10156C00704700BF038829B923F480631B041B0C4C
:10157C00038070479BB243F480630380704700BFC5
:10158C00838923F0FE031B0401F0FE011B0C0B43AB
:10159C0083817047838929B923F001031B041B0C39
:1015AC00838170479BB243F001038381704700BF76
:1015BC00038829B923F040031B041B0C03807047DC
:1015CC009BB243F040030380704700BF038819B9F6
:1015DC00C3F30E03038070476FEA43436FEA534330
:1015EC009BB20380704700BF038829B123F08003AE
:1015FC001B041B0C038070479BB243F080030380D9
:10160C00704700BF838BB1F5804F1BBF23F4804321
:10161C001B049BB21B0C08BF43F4804383837047AD
:10162C000388B1F5006F15BF23F400639BB21B0454
:10163C0043F4006318BF1B0C038070470388B1F59B
:10164C00005F15BF23F400539BB21B0443F40053FB
:10165C0018BF1B0C03807047038829B923F01003B3
:10166C001B041B0C038070479BB243F010030380D8
:10167C00704700BF01827047008AC0B2704700BF3C
:10168C00038829B923F480531B041B0C0380704777
:10169C009BB243F480530380704700BF0388B1F5BD
:1016AC00006F15BF23F400639BB21B0443F400636B
:1016BC0018BF1B0C03807047038829B923F0200343
:1016CC001B041B0C038070479BB243F02003038068
:1016DC00704700BF008BC0F307207047838829B97F
:1016EC0023F400631B041B0C838070479BB243F4F0
:1016FC0000638380704700BF838829B923F480532B
:10170C001B041B0C838070479BB243F48053838073
:10171C00704700BF82B0002301930190019B1944D4
:10172C000191019B188880B202B0704783889BB2EC
:10173C001AB923EA010181807047194381807047EF
:10174C00828A038B90B240EA034021F07F43184019
:10175C000B1A584258417047828A038B90B240EA68
:10176C00034020F07F40704782B000230A0F0093A3
:10177C00019301900092009B21F07F4153B1019B9A
:10178C0014330193019B1B6819420CBF00200120EC
:10179C0002B07047019B1833090C0193F2E700BFAC
:1017AC00C94389B2818270478388808A80B208409D
:1017BC009BB206D001F0E06113EA11410CBF00208E
:1017CC0001207047C94389B28182704710B446F238
:1017DC0010020468C4F202020023904224F00104B7
:1017EC000460036043608360C360036104BF4FF413
:1017FC00C043C4F202034FF0210108BF3D224161F6
:10180C0008BF9A6000F0A28046F22803C4F20203DB
:10181C00984201BF4FF4C043C4F202034FF4746208
:10182C009A6000F0938046F24003C4F2020398429F
:10183C0001BF4FF4C043C4F202034FF474129A6018
:10184C0000F0848046F25803C4F20203984201BFB0
:10185C004FF4C043C4F202034FF074629A6075D027
:10186C0046F27003C4F2020398427BD046F288031E
:10187C00C4F2020398427ED046F2A003C4F20203E3
:10188C00984266D046F2B803C4F20203984201BFF4
:10189C004FF4C043C4F202034FF03D52DA6055D00E
:1018AC0046F21043C4F20203984201BF4FF4C843FE
:1018BC00C4F202033D229A6048D046F22843C4F297
:1018CC000203984201BF4FF4C843C4F202034FF421
:1018DC0074629A603AD046F24043C4F202039842D2
:1018EC0001BF4FF4C843C4F202034FF474129A6060
:1018FC002CD046F25843C4F20203984201BF4FF475
:10190C00C843C4F202034FF074629A601ED046F2D0
:10191C007043C4F20203984237D046F28843C4F2B3
:10192C00020398423AD046F2A043C4F20203984212
:10193C003ED046F2B843C4F20203984201BF4FF4C2
:10194C00C843C4F202034FF03D52DA605DF8044B19
:10195C0070474FF4C043C4F202030022C2F23D02AE
:10196C00DA60F3E74FF4C043C4F202033D22C2F243
:10197C000002DA60EAE74FF4C043C4F202034FF40A
:10198C007462C2F20002DA60E0E74FF4C843C4F2BA
:10199C0002033D22C2F20002DA60D7E74FF4C843DB
:1019AC00C4F202034FF47462C2F20002DA60CDE7B3
:1019BC004FF4C843C4F202030022C2F23D02DA60C3
:1019CC00C4E700BFCA680B68D0F800C02DE9F0016D
:1019DC004F698E69CD690C6A42EA030848EA070729
:1019EC003E434B6A0F6B35432C4344EA03028C6A2B
:1019FC0042EA04034A6B8C6B48F23F061343CFF266
:101A0C001C0623430CEA06061E4306604569CE6A93
:101A1C000C694A688B6825F0070547EA06012943DB
:101A2C00416144608260BDE8F001C360704700BF53
:101A3C000023036043608360C3600361436183617F
:101A4C00C361036243628362C36203634363836360
:101A5C00704700BF036819B923F001030360704796
:101A6C0043F0010303607047036819B923F4004382
:101A7C000360704743F4004303607047036819B96F
:101A8C0023F020030360704743F02003036070478A
:101A9C0041607047406880B2704700BF036822B94C
:101AAC0023F4002303600161704743F400230360B7
:101ABC0001617047036819B923F4802303607047F0
:101ACC0043F48023036070470AB9C1607047016119
:101ADC00704700BF0068C0F3C0407047006800F05A
:101AEC0001007047406900F03800704710B44FF4A3
:101AFC00C84246F20F444FF4C043C4F20203C4F28E
:101B0C000204C4F20202A0428CBF104618468B009D
:101B1C004CBF436803685DF8044B21F0F02121F0C1
:101B2C00821119420CBF00200120704710B44FF4F1
:101B3C00C84246F20F444FF4C043C4F20204C4F24C
:101B4C000202C4F20203A0428CBF1046184611F0E8
:101B5C00005F21F0F02121F0821114BFC16081607F
:101B6C005DF8044B704700BF0B060CD54369AAB156
:101B7C0043F08003802943610FD0036801F01E01FC
:101B8C00194301607047802907D0002AF5D10368FA
:101B9C0001F01E0123EA01010160704723F080036C
:101BAC0080294361F3D1704770B44FF4C04246F2C0
:101BBC000F454FF4C84421F0F023C4F20205C4F2DF
:101BCC000204C4F2020223F0C316A84288BF2246C4
:101BDC0096B1046804F01E0404EAD12489004CBFB9
:101BEC005268126823F0821313EA020002D0201C00
:101BFC0018BF012070BC7047446904F08004EDE705
:101C0C0010B44FF4C84246F20F444FF4C043C4F230
:101C1C000204C4F20202C4F20203A0428CBF1046BA
:101C2C00184611F0005F21F0F02121F0821114BF51
:101C3C00C16081605DF8044B704700BF08B54FF47C
:101C4C004053C4F2010398422AD04FF46053C4F2BB
:101C5C000003984230D04FF47053C4F20003984202
:101C6C0036D04FF45053C4F2010398423CD04FF499
:101C7C00A043C4F20103984242D04FF4A843C4F2EB
:101C8C000103984200D008BD4FF400100121FFF76A
:101C9C0039F84FF400100021BDE80840FFF732B8C6
:101CAC004FF480500121FFF72DF84FF480500021A4
:101CBC00BDE80840FFF726B84FF480400121FFF73C
:101CCC0013F84FF480400021BDE80840FFF70CB832
:101CDC004FF400400121FFF707F84FF400400021BA
:101CEC00BDE80840FFF700B84FF400500121FFF7A2
:101CFC0009F84FF400500021BDE80840FFF702B886
:101D0C004FF480100121FEF7FDFF4FF480100021ED
:101D1C00BDE80840FEF7F6BF2DE9F007B1F802A0C8
:101D2C00B1F80090B1F804800F894E898D89CC8967
:101D3C00B1F806C00A8A03884AEA090141EA080197
:101D4C0041EA0C01394331432943214303F4415304
:101D5C000B439BB20380838B23F400631B041B0C8B
:101D6C008383BDE8F0070282704700BF838B8A68CB
:101D7C0023F47B6323F00F031B042DE9F0031B0CEE
:101D8C00022483830484868BA242B6B263D04FF4C0
:101D9C006053C4F202038C889D68002C0CBF4FF07A
:101DAC0020084FF040082D0242BF9D6825F4000525
:101DBC009D604FF46053C4F202034FF49055D3F876
:101DCC0084C0D3F88470D3F80490CB8809F03F0911
:101DDC00C0F27A05B5FBF9F5CCF3881C0CFB05FCBD
:101DEC00C7F30277B3F5007FBCFBF7F713BFB7FB64
:101DFC00F8F53F0A07EB870705EB85050BBF7F005E
:101E0C006D00B7FBF2F2B5FBF2F205324CF6CD45A4
:101E1C00CCF6CC4592B2A5FB0272D2085508AF1E87
:101E2C00BFB202F00102FD2F94BF45EA022202224A
:101E3C00B1F800C04F888D8946EA0C0141F400616D
:101E4C0039432943134389B20C439BB203848483E3
:101E5C00BDE8F00370478C88CB88E9E700230722A4
:101E6C000282038043808380C3800381438183810A
:101E7C00C381704700230222826003604360838128
:101E8C00704700BF038829B923F040031B041B0CC7
:101E9C00038070479BB243F040030380704700BF40
:101EAC00838B29B923F480631B041B0C8383704739
:101EBC009BB243F480638383704700BF038823F491
:101ECC0000631B041B0C038003889BB21943018025
:101EDC00704700BF0388B1F5804F15BF23F48043D2
:101EEC009BB21B0443F4804318BF1B0C0380704748
:101EFC004FF6FF63994203880BBF23F480739BB2A8
:101F0C001B0443F4807308BF1B0C0380704700BF95
:101F1C00838829B923F004031B041B0C83807047AE
:101F2C009BB243F004038380704700BF838829B9B8
:101F3C0023F010031B041B0C838070479BB243F0EF
:101F4C0010038380704700BF838B23F47B6323F0E3
:101F5C000F031B0402221B0C83830284828B0B88CD
:101F6C0030B44D888C88898992B22A4342F400623D
:101F7C0023F4007322431B040A431B0C92B2002B64
:101F8C000CBF4FF4807300231343838330BC704722
:101F9C00808980B2704700BF81817047038829B95E
:101FAC0023F400531B041B0C038070479BB243F4B7
:101FBC0000530380704700BF03889BB243F48053E7
:101FCC0003807047012914BF008B808A80B2704750
:101FDC00008A80B2704700BF83889BB21AB923EA8B
:101FEC0001018180704719438180704701230909E1
:101FFC0003FA01F1838889B29BB21AB923EA010171
:10200C008180704719438180704700BF0389194252
:10201C000CBF002001207047C94389B20181704771
:10202C0010B48488008901F00F03012280B202FAF7
:10203C0003F31840A4B205D009098A4014420CBF1E
:10204C00002001205DF8044B704700BF01F00F0128
:10205C00012303FA01F1C94389B20181704700BF22
:10206C004FF47053C4F201034FF6FF710022C0F21B
:10207C007F011A605A609A60DA605961704700BF3C
:10208C00837970B443B34FF47053C4F20103016805
:10209C001E6802794579CC4326401E605E6802F1C9
:1020AC00804202F59E3234405C601468214311601A
:1020BC0002689868D14308409860D868102D01EAEE
:1020CC000001D96014D005F1804505F59E352B68CB
:1020DC001A432A6070BC70470379016803F180438E
:1020EC0003F59E3370BC1A6822EA01021A6070472D
:1020FC00996811439960D9680A43DA6070BC7047DB
:10210C0000230C224271036003718371704700BF7E
:10211C004FF47053C4F201031A69104318617047ED
:10212C004FF47053C4F201035B6918420CBF0020DA
:10213C00012070474FF47053C4F20103586170478B
:10214C004FF47053C4F201035B6918420CBF0020BA
:10215C00012070474FF47053C4F20103586170476B
:10216C0008B54FF400000121FEF794FD4FF4000078
:10217C000021BDE80840FEF78DBD00BF4FF4304391
:10218C00C4F2020370B41A6822F0031222F4F8525B
:10219C001A60196802680A431A605A6B22F0070227
:1021AC005A63596B426811435963C6680569002A22
:1021BC003AD0012A02BF36022D0400240FD0022A85
:1021CC0002BF7601ED02002409D04469032A03BF43
:1021DC007601AD02E40336011CBF2D0224034FF43B
:1021EC003043C4F202038268996B1143314341EAD4
:1021FC00050222439A638269DA631A6C22F47F52D5
:10220C0022F03F021A64196CC2690A431A645A6CB0
:10221C00416A02F040425A64026A586C024342EA34
:10222C0001425A6470BC7047446936022D0424067E
:10223C00D5E700BF002303604360C3608360036184
:10224C0043618361C3610362436270474FF430435F
:10225C00C4F202031A6842F001021A60704700BF10
:10226C004FF43043C4F202031A6842F004021A60BD
:10227C00704700BF4FF43043C4F202031A6818B918
:10228C0022F002021A60704742F002021A60704794
:10229C004FF43043C4F202030168F0B4D9601969F9
:1022AC0021F47F5121F03F0119611C6941682143E0
:1022BC001961D969C022C0F2FC020A40DA61DF69F7
:1022CC008668C5680469416982693E4346EA05151A
:1022DC0045EA042444EA014141EA0262DA611A6ADD
:1022EC0002F07F421A621D6AC469016A426A2C4379
:1022FC0044EA012141EA02421A62826AF0BCDA62C3
:10230C00704700BF0023036043608360C3600361B8
:10231C0043618361C361036243628362704700BFA0
:10232C004FF43043C4F202030168F0B45961996967
:10233C0021F47F5121F03F0199619C69416821434F
:10234C009961596AC022C0F2FC020A405A625F6A63
:10235C008668C5680469416982693E4346EA051589
:10236C0045EA042444EA014141EA02625A629A6A4B
:10237C0002F07F429A629D6AC469016A426A2C43E8
:10238C0044EA012141EA02429A62826AF0BC1A6371
:10239C00704700BF0023036043608360C360036128
:1023AC0043618361C361036243628362704700BF10
:1023BC004FF43043C4F20203DA6918B922F0200258
:1023CC00DA61704742F02002DA6170474FF4304313
:1023DC00C4F202035A6A18B922F020025A627047FA
:1023EC0042F020025A6270474FF43043C4F20203A9
:1023FC00DA6C19B922F00102DA64704722F47F42D8
:10240C0022F00102DA64DA6C42F0010242EA0020A6
:10241C00D86470474FF43043C4F202039864704799
:10242C004FF43043C4F202031A6819B922EA0000CF
:10243C001860704710431860704700BF4FF430436A
:10244C00C4F202035B6818420CBF002001207047E5
:10245C004FF43043C4F20203986070474FF430439A
:10246C00C4F202035A681B68034005D012EA10201C
:10247C000CBF002001207047184670474FF43043C2
:10248C00C4F20203000A9860704700BF08B54FF011
:10249C0080600121FEF736FC4FF080600021BDE822
:1024AC000840FEF72FBC00BF4FF4D043C4F2010329
:1024BC004FF478429968CFF20002114070B49960E1
:1024CC009D68446901692C4344EA01419960D968CB
:1024DC001140D960DD68C46981692C4344EA01412B
:1024EC00D9601969114019611D69446A016A2C434C
:1024FC0044EA0141196159690A405A615C69C16A2F
:10250C00826A214341EA02425A61996948F68F0274
:10251C00C0F6FE720A409A619E690568446881683B
:10252C00C26835432C4321430A439A61DA6A446BEF
:10253C00016B02F07F42DA62826BD86A024342EA94
:10254C00042242EA0142DA6270BC70470023036045
:10255C0043608360C360036143618361C361036251
:10256C0043628362C362036343638363704700BF48
:10257C004FF4D043C4F201039A6918B922F0010256
:10258C009A61704742F001029A6170474FF4D04350
:10259C00C4F201039A6918B922F480329A61704727
:1025AC0042F480329A6170474FF4D043C4F2010375
:1025BC0048F68F029969C0F6FE720A4010B49A610F
:1025CC009C6999699A69C4F30214C1F30221C2F39C
:1025DC0002320460416082605DF8044B704700BFBA
:1025EC000223036043608360704700BF4FF4D04305
:1025FC00C4F20103186470474FF4D043C4F20103D2
:10260C00586270474368D1F81CC02DE9F00F03F4F1
:10261C00704B91E80C0042EA0342D1F80CA0D1F8BF
:10262C000890D1F820808F690D694E6A4C69C0F80A
:10263C0004B042608368D1F82CB08A6A49EA0A492E
:10264C0003F470438360C0F808900369D1F83090AC
:10265C004FEA084848EA0C2C23F007034CEA07071A
:10266C00036147EA0666056100238569836186611B
:10267C00456925F0FF0545614461C46924F4E064B3
:10268C004BEA020224F00704C461C261826A8362CD
:10269C00C0F82890C56A8C6B4A6BCB6B42EA04423B
:1026AC0005F0E021C162C262026B22F4FF6222F0EB
:1026BC00070282B00263036302B0BDE8F00F7047FB
:1026CC00002310B44FF4C061FF24072244618162DF
:1026DC00C262036043608360C36003618361C36152
:1026EC0003624362036343638363C3635DF8044B18
:1026FC00704700BF036819B923F0010303607047EA
:10270C0043F00103036070474FF4D043C4F201035C
:10271C000022596C5A64596C5A6C090C92B280E8BC
:10272C000600704700230360436070474FF4D043AA
:10273C00C4F201039B6C18420CBF002001207047AF
:10274C0030B45AB9036823F0020303604FF4D0434A
:10275C00C4F2010301225A6230BC704705684C6810
:10276C008A680B6845F002010160C16801F07F4185
:10277C00C160C1680B4343EA042343EA0243C360CC
:10278C00E4E700BF0023036043608360704700BF31
:10279C00036849B923F0100303604FF4D043C4F22B
:1027AC00010301225A62704743F010030360F4E7FF
:1027BC0030B491E83400CB681B0443EA052323436F
:1027CC0043EA0263036430BC704700BF002303601C
:1027DC0043608360C360704730B4446804F4704451
:1027EC00446084684FF4D043C4F2010304F4704491
:1027FC008460DC680369A5B2013501EB14412A44FD
:10280C004C1C042553B1012B08BF032506D0991E7F
:10281C00022918D9072B18BF012514D0C16A036BE4
:10282C00C1F30C010339C3F30A03B1FBF5F1013B0E
:10283C00651E2944134444EA014442EA03424460BD
:10284C00826030BC70470225E8E700BF41617047E9
:10285C00816270470369F0B42BB3012B08BF0323CB
:10286C0006D09C1E022C1CD9072B18BF012318D094
:10287C0045688468C5F30C05C4F30C0401FB03F331
:10288C006E1E671E31441744DE1C45EA014544EABE
:10289C00074446EA034345608460C362F0BC0263AC
:1028AC0070470223E4E70423E2E700BF0369042234
:1028BC003BB1012B08BF032203D09A1E022A1BD85E
:1028CC000222C36A1B0CB3FBF2F3042261B101298F
:1028DC0008BF032208D08A1E022A98BF022203D9FD
:1028EC0007290CBF0222012203FB02F3DA1C42EA85
:1028FC000343C36201617047072B18BF0122E0D16B
:10290C00DEE700BF4FF4D043C4F201035A6B19B990
:10291C0022EA00005863704710435863704700BFA9
:10292C004FF4D043C4F201039B6B18420CBF002040
:10293C00012070474FF4D043C4F20103D8637047B1
:10294C004FF4D043C4F201039A6B5B6B034004D089
:10295C0010420CBF0020012070471846704700BF82
:10296C004FF4D043C4F20103D863704710B44FF056
:10297C00204398B143F2D20243F820204FF48273E3
:10298C00441CCAF200034FF020416FF0704241F832
:10299C00242043F820205DF8044B704743F2DB02FF
:1029AC001A60EBE72DE9F0074368D0F80890C76888
:1029BC00066945698469C169026AD0F82880D0F833
:1029CC0000C049EA030A4AEA07073E4335432C4351
:1029DC0021430A43416A056B446B42EA0103C26A14
:1029EC0043EA080313434FEA8C021D4302F12042D1
:1029FC002543B9F1080F156002BF136843F040037B
:102A0C001360B4F5801F26D0836B1C6993E84200D9
:102A1C009F699D68DA685B69394341EA061141EAAE
:102A2C00052141EA024141EA03610CF101024FF038
:102A3C00204341EA0451B8F5804F43F8221021D0CD
:102A4C004FF48273CAF200036FF0704243F82C20EB
:102A5C00BDE8F0077047BCF1000FD5D04FF0204215
:102A6C00836B5168146844F480141460146844F443
:102A7C00807414601C6921F47001651E41EA0551D3
:102A8C005160C3E7C36B93E824009E699C68186986
:102A9C005969324342EA051242EA04224FF4827326
:102AAC0042EA0052CAF2000342EA016243F82C20C7
:102ABC00BDE8F007704700BFF0B4C16B846B022314
:102ACC0043600F220023FF254FF480574FF400562C
:102ADC004FF0100C07624662C0F80CC003608360B4
:102AEC000361C36243618361C361836203634363B4
:102AFC00A36122606260E26022616261A5608D6008
:102B0C000A604A60CA600A614A618B61F0BC704716
:102B1C00800000F1204039B902684FF6FE73C0F214
:102B2C000F03134003607047036843F00103036015
:102B3C00704700BF10280CBF60238023CAF200032B
:102B4C004FF0FC3218204021186059609A60DA600E
:102B5C00704700BF2DE9F00F46688568C269036AAB
:102B6C00C4689168D3F80480D0F810A0D0F814C0D1
:102B7C00D2F804901768D268354345F008052C4309
:102B8C009D68866900684FEA014B29041D68DB6863
:102B9C0041EA0821102841EA050545EA036544EAA3
:102BAC000A044BEA092B0CBF60238023CAF20003F2
:102BBC0044EA4C2C4BEA07074CEA463647EA0267D4
:102BCC001E609F60DD60BDE8F00F704730B4016A95
:102BDC00C469FC2300221025056085604260C26038
:102BEC0002614261826123606360A360E3600B60F9
:102BFC004B608B60CB6030BC704700BF51B110286C
:102C0C000CBF60238023CAF200031A6842F004024E
:102C1C001A60704710280CBF60228022CAF2000292
:102C2C004FF6FB731168C0F20F030B401360704733
:102C3C0051B110280CBF60238023CAF200031A681C
:102C4C0042F040021A60704710280CBF60228022AC
:102C5C00CAF200024FF6BF731168C0F20F030B40AB
:102C6C001360704710280CBF60238023CAF2000346
:102C7C0058697047A023CAF200034FF0FC321820A9
:102C8C000021186059609A60DA601A61704700BFC1
:102C9C00F0B407684668C468016942698568A02376
:102CAC0047F01000CAF2000340EA462040EA4530E3
:102CBC00186094E86000A068E468000440EA06200C
:102CCC00284340EA0460986091E87000C8683104B9
:102CDC0041EA0521214341EA0061D96092E83100C3
:102CEC00D1682A0442EA0422024342EA01621A61D0
:102CFC00F0BC704730B40169C4684269FC230025FC
:102D0C0005604560856023606360A360E3600B60D1
:102D1C004B608B60CB6030BC136053609360D360AE
:102D2C00704700BF50B9A022CAF200024FF6FB73E5
:102D3C001168C0F20F030B4013607047A023CAF256
:102D4C0000031A6842F004021A60704730B4800025
:102D5C0000F120404FF4A073C118CAF20003002206
:102D6C004FF434756FF07044C0F840518C601A61A8
:102D7C0030BC5A619A6170472DE9F003816846684E
:102D8C00C5680469C769D0F82090436A02680E438D
:102D9C00354341692C430C4381690C433C4344EA61
:102DAC0009041C431ABB4FF4A072CAF20002836AD6
:102DBC0014609F685D681E68DC6803F110000BC826
:102DCC00013F3F02013D47EA0515013E3543013CF9
:102DDC0045EA0434013844EA0040013940EA015123
:102DEC00013B41EA03639360BDE8F00370474FF485
:102DFC00A07149EA0708CAF2000148EA0305836A90
:102E0C000D60D3F808805E68DF68D3F800C05D6998
:102E1C00186908F1FF331B02013E920043EA0616C3
:102E2C00013F0CF1FF3C02F120423F0346EA0C0645
:102E3C00013D013847EA055546EA0040C2F84041D9
:102E4C008D60C2F84801BDE8F003704730B4826A67
:102E5C00402303610021102380254FF40074456149
:102E6C008461016041608160C16101624162C36043
:102E7C0030BC136053609360D360136153619361F2
:102E8C00704700BF30B490E82200C46882682943C0
:102E9C004FF4A07341EA4421013ACAF2000341EA1B
:102EAC0042121A6130BC70474FF4A073CAF200038F
:102EBC0020B1986900F0180080087047986900F0FC
:102ECC00060070474FF4A073CAF200035A6942EA35
:102EDC0040005861704700BF4FF4A073CAF2000362
:102EEC001A6942EA40101861704700BF800000F177
:102EFC00204039B9D0F8402147F6FF531340C0F8B1
:102F0C0040317047D0F8403143F40073C0F8403181
:102F1C00704700BFBAB1102837D0B0F5807F3BD0D6
:102F2C00B0F5805F0BBFA0234FF4A073CAF200036F
:102F3C00CAF200030BBF5A685A69114311430CBF04
:102F4C00596059617047102817D0B0F5807F2AD08E
:102F5C00B0F5805F0BBFA0234FF4A073CAF200033F
:102F6C00CAF200030BBF5A685A6922EA010122EA2D
:102F7C0001010CBF5960596170476023CAF200030C
:102F8C005A6822EA0101596070476023CAF20003B3
:102F9C005A681143596070478023CAF200035A687B
:102FAC001143596070478023CAF200035A6822EA21
:102FBC0001015960704700BF102814D0B0F5807F14
:102FCC0016D0B0F5805F0BBFA0234FF4A073CAF2EC
:102FDC000003CAF200030CBF5868986908400B1A2A
:102FEC005842584170476023CAF200035868F5E70D
:102FFC008023CAF200035868F0E700BF102817D0EE
:10300C00B0F5807F1CD0B0F5805F0BBFA0234FF4D0
:10301C00A073CAF20003CAF200030BBF5A685A69C4
:10302C0022EA010122EA01010CBF59605961704783
:10303C006023CAF200035A6822EA01015960704702
:10304C008023CAF200035A6822EA010159607047D2
:10305C00102810B424D0B0F5807F18D0B0F5805F64
:10306C0027D04FF4A072CAF2000201285369946968
:10307C0001EA030298BF04F001010ED8002A18BF20
:10308C0000290CBF002001205DF8044B7047802301
:10309C00CAF200035B6803EA010203EAD101EDE71F
:1030AC006023CAF200035B6801EA030203EAD10160
:1030BC00E4E7A023CAF200035B68ECE7102817D002
:1030CC00B0F5807F1CD0B0F5805F0BBFA0234FF410
:1030DC00A073CAF20003CAF200030BBF5A685A6904
:1030EC0022EAD10142F001020CBF59605A617047CB
:1030FC006023CAF200035A6822EAD1015960704772
:10310C008023CAF200035A6822EAD1015960704741
:10311C0008B540200121FDF7CBFD40200021BDE882
:10312C000840FDF7C5BD00BF4FF40063C5F20603B0
:10313C001A6818B922F004021A60704742F00402AF
:10314C001A6070474FF40063C5F206039868704725
:10315C004FF40063C5F206031A6818B922F008028E
:10316C001A60704742F008021A6070474FF400630F
:10317C00C5F206035B6818420CBF002001207047A3
:10318C004FF40063C5F206036FEA001058607047F5
:10319C004FF40063C5F206035B6818420CBF0020B5
:1031AC00012070474FF40063C043C5F20603C0B260
:0431BC0058607047A0
:1031C00000000000000000000102030406070809D7
:1031D00080D1F00800000000010203040102030492
:0431E00006070809CD
:04000005080001C12D
:00000001FF
